:100000000C9432050C94BE210C94EB210C945A05EF
:100010000C945A050C945A050C94DE090C945A055C
:100020000C945A050C945A050C945A050C945A05D4
:100030000C945A050C945A050C945A050C945A05C4
:100040000C9428220C945A050C94961F0C94192099
:100050000C945A050C945A050C945A050C945A05A4
:100060000C945A050C945A050001020304050A0B6E
:100070000C0D0E0F111213141516CF01D501DB0153
:10008000E301EC01F601FF0106020E0215021C025B
:100090002402504120506F77657209203D2025537E
:1000A0000D0A00435243204C656E67746809203D79
:1000B0002025530D0A004D6F64656C0909203D2011
:1000C00025530D0A00446174612052617465092052
:1000D0003D2025530D0A0044594E50442F464541BA
:1000E0005455524500434F4E4649470052465F53D0
:1000F000455455500052465F434800454E5F5258A4
:100100004144445200454E5F41410052585F5057B0
:100110005F50302D360054585F41444452005258CD
:100120005F414444525F50322D350052585F414484
:1001300044525F50302D31000D0A002530327800D6
:10014000203078002553092563203D000D0A00204A
:10015000307825303278002553092563203D004F43
:100160004253455256455F54583D253032783A2027
:10017000504F4C535F434E543D2578204152435FCE
:10018000434E543D25780D0A0053544154555309AC
:1001900009203D203078253032782052585F445273
:1001A0003D25782054585F44533D2578204D4158D3
:1001B0005F52543D25782052585F505F4E4F3D2589
:1001C000782054585F46554C4C3D25780D0A003137
:1001D0004D42505300324D425053003235304B4265
:1001E0005053006E524632344C3031006E5246321B
:1001F000344C30312B0044697361626C65640038A3
:100200002062697473003136206269747300504152
:100210005F4D494E0050415F4C4F570050415F4881
:100220004947480050415F4D41580052783A206696
:10023000723D25642C746F3D25642C6C613D2564F2
:100240002C63693D25642C6D743D25642C743D251B
:10025000642C63723D2564282573293A2025730A8E
:100260000053656E742061636B206D736720746F3B
:100270002025640A004D65737361676520616464BD
:1002800072657373656420666F7220746869732089
:100290006E6F64652E0A004D65737361676520613A
:1002A0007661696C61626C65206F6E207069706543
:1002B0002025640A0041636B3A20726563656976A4
:1002C0006564206E6F6E652061636B206D73672EB1
:1002D0000A0041636B3A2072656365697665642044
:1002E0004F4B0A0041636B3A20726563656976651E
:1002F000642061636B2066726F6D2074686520777F
:10030000726F6E672073656E736F720A0041636B64
:100310003A20726563656976652074696D656F75ED
:10032000740A0054783A2066723D25642C746F3D3F
:1003300025642C6C613D25642C6E653D25642C6321
:10034000693D25642C6D743D25642C74793D2564CC
:100350002C63723D25643A2025730A0052656C6156
:1003600079696E67206D657373616765206261638B
:100370006B20746F20676174657761792E0A004D78
:1003800065737361676520746F6F206C6172676558
:100390000A004E6F2072656C6179206E6F64657320
:1003A0002077617320666F756E642E2054727969B0
:1003B0006E6720616761696E20696E20313020733D
:1003C00065636F6E64732E0A0044697363617264BF
:1003D00065642072656C61792025642E2044697300
:1003E00074616E63652069732025640A0055736922
:1003F0006E672072656C61792025642E20446973D4
:1004000074616E63652069732025640A004F70650E
:100410006E2070696E672072656164696E67207016
:100420006970653A2025640A00526164696F206929
:10043000642073746F72656420696E204545505264
:100440004F4D207761733A2025640A005261646938
:100450006F2069642072656365697665643A20255A
:10046000640A0053656E736F72206E6574776F72E5
:100470006B2069732066756C6C2120596F75206143
:100480006C726561647920686176652074686520A6
:100490006D6178696D756D206F662073656E736F21
:1004A0007273210A004E6F20726164696F20696463
:1004B00020666F756E6420696E20454550524F4D21
:1004C000206665746368696E67206F6E652066726A
:1004D0006F6D2073656E736F72206E657420676137
:1004E00074657761790A0052656C61793D25642CE9
:1004F0002064697374616E63653D25640A005374FA
:1005000061727465642025732E0A000000000000EB
:100510003E5B4F5B3E3E6B4F6B3E1C3E7C3E1C1871
:100520003C7E3C181C577D571C1C5E7F5E1C0018CF
:100530003C1800FFE7C3E7FF0018241800FFE7DBC3
:10054000E7FF30483A060E2629792926407F05051F
:1005500007407F05253F5A3CE73C5A7F3E1C1C085C
:10056000081C1C3E7F14227F22145F5F005F5F0621
:10057000097F017F006689956A606060606094A26F
:10058000FFA29408047E040810207E201008082A88
:100590001C08081C2A08081E101010100C1E0C1E27
:1005A0000C30383E3830060E3E0E060000000000CB
:1005B00000005F00000007000700147F147F142470
:1005C0002A7F2A12231308646236495620500008F5
:1005D000070300001C2241000041221C002A1C7F4E
:1005E0001C2A08083E080800807030000808080827
:1005F00008000060600020100804023E5149453E9A
:1006000000427F400072494949462141494D331813
:1006100014127F1027454545393C4A49493141214B
:100620001109073649494936464949291E0000142F
:100630000000004034000000081422411414141477
:1006400014004122140802015909063E415D594E29
:100650007C1211127C7F494949363E414141227F3B
:100660004141413E7F494949417F090909013E41D4
:100670004151737F0808087F00417F4100204041BD
:100680003F017F081422417F404040407F021C020E
:100690007F7F0408107F3E4141413E7F09090906E2
:1006A0003E4151215E7F09192946264949493203B5
:1006B000017F01033F4040403F1F2040201F3F403B
:1006C00038403F63140814630304780403615949F4
:1006D0004D43007F41414102040810200041414147
:1006E0007F0402010204404040404000030708002C
:1006F00020545478407F28444438384444442838AF
:100700004444287F385454541800087E090218A421
:10071000A49C787F0804047800447D400020404079
:100720003D007F1028440000417F40007C04780495
:10073000787C080404783844444438FC182424188D
:1007400018242418FC7C0804040848545454240435
:10075000043F44243C4040207C1C2040201C3C4062
:1007600030403C44281028444C9090907C44645481
:100770004C44000836410000007700000041360874
:100780000002010204023C2623263C1EA1A16112A4
:100790003A4040207A3854545559215555794121D1
:1007A00054547841215554784020545579400C1EBA
:1007B0005272123955555559395454545939555462
:1007C00054580000457C410002457D420001457CB3
:1007D00040F0292429F0F0282528F07C54554500C4
:1007E0002054547C547C0A097F49324949493232A9
:1007F00048484832324A4848303A4141217A3A42E0
:10080000402078009DA0A07D39444444393D4040BB
:10081000403D3C24FF2424487E4943662B2FFC2F77
:100820002BFF0929F620C0887E0903205454794102
:100830000000447D413048484A32384040227A0026
:100840007A0A0A727D0D19317D2629292F28262939
:1008500029292630484D402038080808080808088B
:1008600008382F10C8ACBA2F102834FA00007B00CB
:100870000008142A142222142A1408AA005500AAD7
:10088000AA55AA55AA000000FF00101010FF00147E
:100890001414FF001010FF00FF1010F010F01414DB
:1008A00014FC001414F700FF0000FF00FF1414F400
:1008B00004FC141417101F10101F101F1414141F01
:1008C00000101010F0000000001F101010101F107A
:1008D000101010F010000000FF1010101010101079
:1008E0001010FF10000000FF140000FF00FF0000C8
:1008F0001F10170000FC04F414141710171414F43C
:1009000004F40000FF00F714141414141414F70076
:10091000F7141414171410101F101F141414F414C7
:100920001010F010F000001F101F0000001F140036
:100930000000FC140000F010F01010FF10FF141461
:1009400014FF141010101F00000000F010FFFFFF34
:10095000FFFFF0F0F0F0F0FFFFFF0000000000FFED
:10096000FF0F0F0F0F0F38444438447C2A2A3E14DF
:100970007E02020606027E027E026355494163380A
:1009800044443C04407E201E2006027E020299A5BB
:10099000E7A5991C2A492A1C4C7201724C304A4D19
:1009A0004D303048784830BC625A463D3E4949494E
:1009B000007E0101017E2A2A2A2A2A44445F4444F7
:1009C00040514A444040444A51400000FF0103E086
:1009D00080FF000008086B6B083612362436060FBD
:1009E000090F06000018180000001010003040FF2A
:1009F0000101001F01011E00191D1712003C3C3CA3
:100A00003C000000000000000000240027002A0035
:100A100000000000250028002B000000000023003B
:100A2000260029000404040404040404020202024F
:100A300002020303030303030102040810204080A1
:100A40000102040810200102040810200000000721
:100A50000002010000030406000000000000000086
:100A60007008CC1F11241FBECFEFD8E0DEBFCDBF72
:100A700014E0A0E0B1E0E8E1F9E402C005900D92D5
:100A8000A831B107D9F715E0A8E1B4E001C01D9283
:100A9000AC35B107E1F71AE0C4E6DAE004C022970A
:100AA000FE010E944F24C036D107C9F70E941822C8
:100AB0000C948A240C940000FC0188279927E89460
:100AC00021912032E9F3293010F02E30C8F32B3277
:100AD00041F02D3239F4689404C00E94B105820FB0
:100AE000911D219120532A30C0F31EF490958195D9
:100AF0009F4F0895DC0101C06D9341505040E0F7D5
:100B00000895FB01DC014150504048F001900D92E6
:100B10000020C9F701C01D9241505040E0F70895F0
:100B2000FB019F01E8944230C4F04532B4F44A30EE
:100B300029F497FB1EF4909581959F4F642F77279A
:100B40000E943924805D8A330CF0895D8193CB014A
:100B50000097A1F716F45DE251931082C9010C943D
:100B6000D6077AE0979F902D879F802D910D1124B5
:100B70000895AEE0B0E0EFEBF5E00C9461248C0159
:100B800077FF02C060E070E8615070407E836D8343
:100B90001A8309838EE08C83CE010196BA01A901E4
:100BA0000E94E3052D813E8137FD09C0EF81F88564
:100BB0002E173F070CF4F901E00FF11F10822E965B
:100BC000E4E00C947D24ABE0B0E0E9EEF5E00C94B9
:100BD00053243C012B015A01FC01178216828381A8
:100BE00081FD03C06FEF7FEFC6C19AE0892E1E0121
:100BF0000894211C311CF3012381F20123FD85910E
:100C000023FF81912F01882309F4B2C1853239F481
:100C100023FD859123FF81912F01853229F490E0F6
:100C2000B3010E94E607E7CF982FFF24EE24992412
:100C3000FFE1FF15D0F09B3269F09C3228F490322E
:100C400059F0933291F40EC09D3249F0903369F41B
:100C500041E024C052E0F52A84E0F82A28C098E058
:100C6000F92A25C0E0E1FE2A22C0F7FC29C0892F1D
:100C700080538A3070F4F6FE05C0989C902C1124A5
:100C8000980E15C0E89CE02C1124E80EF0E2FF2A33
:100C90000EC09E3229F4F6FC6BC140E4F42A07C072
:100CA0009C3619F450E8F52A02C0983649F4F2014E
:100CB00023FD959123FF91912F01992309F0B8CF3E
:100CC000892F8554833018F08052833038F444E003
:100CD00050E0A40EB51E5FE359830FC0933631F088
:100CE000933779F0933509F056C020C0F501808123
:100CF000898342E050E0A40EB51E610101E010E0DE
:100D000012C0F501C080D180F6FC03C06FEF7FEF09
:100D100002C0692D70E042E050E0A40EB51EC6018D
:100D20000E94CB078C015FE7F52214C0F501C0805B
:100D3000D180F6FC03C06FEF7FEF02C0692D70E039
:100D400042E050E0A40EB51EC6010E94C0078C010F
:100D500050E8F52AF3FE07C01AC080E290E0B30124
:100D60000E94E607EA948E2D90E008171907A8F371
:100D70000EC0F601F7FC8591F7FE81916F0190E0BE
:100D8000B3010E94E607E110EA94015010400115FA
:100D9000110579F7EAC0943611F0993669F5F7FE36
:100DA00008C0F501208131814281538184E090E0C7
:100DB0000AC0F501808191819C01442737FD40954F
:100DC000542F82E090E0A80EB91E9FE6F92257FF4B
:100DD00009C050954095309521953F4F4F4F5F4F3B
:100DE000E0E8FE2ACA01B901A1012AE030E00E9430
:100DF0001208D82ED21840C0953729F41F2D1F7E17
:100E00002AE030E01DC01F2D197F9F3661F090371A
:100E100020F4983509F0ACC00FC0903739F09837FE
:100E200009F0A6C004C028E030E00AC0106114FD3B
:100E3000146020E130E004C014FD166020E132E0CF
:100E400017FF08C0F501608171818281938144E0C0
:100E500050E008C0F50180819181BC0180E090E004
:100E600042E050E0A40EB51EA1010E941208D82E47
:100E7000D2188FE7F82EF122F6FE0BC05EEFF522B6
:100E8000D91438F4F4FE07C0F2FC05C08FEEF82246
:100E900002C01D2D01C0192DF4FE0DC0FE01ED0D87
:100EA000F11D8081803319F499EEF92208C01F5F8B
:100EB000F2FE05C003C08F2D867809F01F5F0F2D4D
:100EC000F3FC14C0F0FE0FC01E1510F09D2C0BC0DB
:100ED0009D2C9E0C911A1E2D06C080E290E0B3015D
:100EE0000E94E6071F5F1E15C0F304C01E1510F414
:100EF000E11A01C0EE2404FF0FC080E390E0B301CB
:100F00000E94E60702FF1DC001FD03C088E790E0D4
:100F10000EC088E590E00BC0802F867891F001FF2D
:100F200002C08BE201C080E2F7FC8DE290E0B301E9
:100F30000E94E60706C080E390E0B3010E94E60746
:100F40009A94D914C0F3DA94F101ED0DF11D80816A
:100F500090E0B3010E94E607DD20A9F706C080E219
:100F600090E0B3010E94E607EA94EE20C1F743CE79
:100F7000F30166817781CB012B96E2E10C946F241B
:100F8000FC010590615070400110D8F78095909554
:100F90008E0F9F1F0895FC01615070400190011059
:100FA000D8F7809590958E0F9F1F0895DC01FC0166
:100FB000672F71917723E1F7329704C07C916D938D
:100FC00070836291AE17BF07C8F308950F931F9304
:100FD000CF93DF938C01EB018B8181FF1BC082FFDC
:100FE0000DC02E813F818C819D812817390764F4C3
:100FF000E881F9810193F983E88306C0E885F985E2
:10100000802F0995892B31F48E819F8101969F83D2
:101010008E8302C00FEF1FEFC801DF91CF911F91A8
:101020000F910895FA01AA27283051F1203181F15A
:10103000E8946F936E7F6E5F7F4F8F4F9F4FAF4FE0
:10104000B1E03ED0B4E03CD0670F781F891F9A1FF3
:10105000A11D680F791F8A1F911DA11D6A0F711DA7
:10106000811D911DA11D20D009F468943F912AE0B3
:10107000269F11243019305D3193DEF6CF0108959B
:10108000462F4770405D4193B3E00FD0C9F7F6CFCC
:10109000462F4F70405D4A3318F0495D31FD405294
:1010A000419302D0A9F7EACFB4E0A695979587952A
:1010B00077956795BA95C9F7009761057105089509
:1010C0009B01AC010A2E06945795479537952795B5
:1010D000BA95C9F7620F731F841F951FA01D08954D
:1010E000EF920F9388E194E069E04AE00E944D1985
:1010F00083E894E067E046E025E004E033E0E32E97
:101100000E94331B0F91EF9008951F93DF93CF93AD
:10111000CDB7DEB783E894E062E30E94081A83E863
:1011200094E061E00E94491E83E894E061E070E091
:101130000E944F1E83E894E060E070E040E050E0E1
:101140000E94431E82EB94E060E071E00E94A821BF
:101150001B8512951F7082EB94E0612F4AE050E0EE
:101160000E941821113009F58C85882309F069C087
:1011700082EB94E06DE071E00E94AB21CE010D9610
:101180000E945C059093AC048093AB040EC082EB8C
:1011900094E06DE171E00E94AB21CE010D960E94BA
:1011A0005C059093AE048093AD0483E894E00E94C4
:1011B000AE1983E894E06CE271E00E94A82160918E
:1011C000AB047091AC0483E894E04AE050E00E94E4
:1011D000892182EB94E060E371E00E94A821609194
:1011E000AB047091AC0482EB94E04AE050E00E94C2
:1011F000892183E894E063E371E00E94A821609173
:10120000AD047091AE0483E894E04AE050E00E949F
:10121000892182EB94E067E371E00E94A82160914C
:10122000AD047091AE0482EB94E04AE050E00E947D
:10123000762183E894E00E94201ACF91DF911F91DC
:101240000895813009F0B1CFA2CF0F931F93DF93A0
:10125000CF93CDB7DEB7A1970FB6F894DEBF0FBE20
:10126000CDBF6AE070E080E090E00E94E92282EB6E
:1012700094E06AE371E00E94A82188E194E00E9472
:10128000B215882351F182EB94E064E571E00E948D
:10129000AB218E010F5F1F4FC80168E174E00E940F
:1012A0007D0F8DB79EB781970FB6F8949EBF0FBE86
:1012B0008DBFADB7BEB71196F80181E201900D92D6
:1012C0008150E1F70E9485088DB79EB781960FB6D1
:1012D000F8949EBF0FBE8DBF06C082EB94E067E618
:1012E00071E00E94AB21A1960FB6F894DEBF0FBE4D
:1012F000CDBFCF91DF911F910F910895CF92DF92D3
:10130000EF92FF920F931F9353E8E52E54E0F52ED2
:10131000C70168E20E94891AC7010E94201AC7010A
:101320000E94AE19C70162E30E94081AC70161E07A
:101330000E94491EC70161E070E00E944F1EC70174
:1013400060E070E040E050E00E94431E0DE711E0D5
:10135000C701B8010E94AB2182EB94E0B8010E9462
:10136000A821C7010E94201A60ED77E080E090E09C
:101370000E94E92248E1C42E44E0D42EC6016091C7
:10138000DF0143E050E02CE401E010E00E9453183C
:10139000C6016BE971E04FE951E00E943617C701C1
:1013A00063EA71E00E94AB21C7010E94201A1F91DD
:1013B0000F91FF90EF90DF90CF9008951F920F92C2
:1013C0000FB60F9211248F93EF93FF93F894A89583
:1013D00084B7877F84BFE0E6F0E080818861808306
:1013E00010827894E091AF04F091B00481E082879C
:1013F000FF91EF918F910F900FBE0F901F90189556
:10140000882319F48CB5806202C08CB58F7D8CBDA9
:1014100008959CB5937F982B9CBD08952CB5382FCB
:1014200033702C7F322B3CBD2DB590E09595879580
:101430009595879581702E7F822B8DBD08958AE0CA
:1014400061E00E9490238AE061E00E9451238CB504
:1014500080618CBD8CB580648CBD8DE061E00E94A4
:1014600051238BE061E00E9451230895FC016083C9
:1014700041831282138280E2848315821682108651
:101480001186128613861486158616861786089589
:10149000FF920F931F938C01F62E81E00E94000AA9
:1014A00080E00E94090A80E00E940E0AF801818112
:1014B0006F2D0E9490231F910F91FF900895CF935D
:1014C000DF93EC0160E070E00E94480A80E58EBD89
:1014D0000DB407FEFDCF8EB583E78EBD0DB407FEBC
:1014E000FDCF8EB5CE0161E070E00E94480ADF9129
:1014F000CF9108951F93CF93DF93EC0160E070E0EC
:101500000E94480A80E68EBD0DB407FEFDCF8EB561
:101510008FEF8EBD0DB407FEFDCF1EB5CE0161E08D
:1015200070E00E94480A812FDF91CF911F910895AA
:101530001F93CF93DF93EC0160E070E00E94480AB4
:101540008FEF8EBD0DB407FEFDCF1EB5CE0161E05D
:1015500070E00E94480A812FDF91CF911F9108957A
:101560001F93CF93DF93EC0160E070E00E94480A84
:1015700081EE8EBD0DB407FEFDCF1EB5CE0161E03C
:1015800070E00E94480A812FDF91CF911F9108954A
:101590001F93CF93DF93EC0160E070E00E94480A54
:1015A00082EE8EBD0DB407FEFDCF1EB5CE0161E00B
:1015B00070E00E94480A812FDF91CF911F9108951A
:1015C0000F931F938C01FC01808160E00E949023A7
:1015D000C8010E94B00AC8010E94C80A1F910F9159
:1015E0000895EF92FF920F931F93CF93DF93EC0137
:1015F000F62EE72E9C81142F941708F4192F8E8154
:10160000882311F000E002C0092F011B888160E0EF
:101610000E949023CE0160E070E00E94480A81E6BB
:101620008EBD0DB407FEFDCF8F2D9E2D9C01F901BF
:10163000FEB49FEF07C09EBD0DB407FEFDCF8EB573
:10164000819311501123B9F707C08EBD0DB407FE69
:10165000FDCF9EB5015001C08FEF0023B1F7CE0141
:1016600061E070E00E94480A888161E00E94902356
:101670008F2DDF91CF911F910F91FF90EF900895E3
:10168000DF92EF92FF920F931F93CF93DF93EC01C2
:10169000E62ED72EF22E9C81142F941708F4192FC2
:1016A0008E81882311F000E002C0092F011BCE01BA
:1016B00060E070E00E94480AFEBC0DB407FEFDCF5A
:1016C0008E2D9D2D9C01F901FEB408C080818EBD38
:1016D0000DB407FEFDCF31968EB511501123B1F731
:1016E00006C01EBC0DB407FEFDCF8EB50150002311
:1016F000C1F7CE0161E070E00E94480A8F2DDF91B2
:10170000CF911F910F91FF90EF90DF9008950F936D
:101710001F93CF93DF93EC01162F042F60E070E04E
:101720000E94480A1F7110621EBD0DB407FEFDCF56
:101730001EB50EBD0DB407FEFDCF8EB5CE0161E026
:1017400070E00E94480A812FDF91CF911F910F9185
:101750000895262F4F702295207F242B64E0422F7E
:101760000E94870B0895662319F061E04FE302C0E1
:1017700061E040E00E94870B0895CF92DF92EF92E4
:10178000FF920F931F938B017A01690167E040E795
:101790000E94870B90E09C01E5E036952795EA953D
:1017A000E1F72170F801208374E0969587957A958A
:1017B000E1F7282F2170F70120839695879596955C
:1017C00087958170F60180831F910F91FF90EF90B4
:1017D000DF90CF900895DF92EF92FF920F931F93C7
:1017E000CF93DF938C017B010E94980AC82FD0E031
:1017F000CE01A6E096958795AA95E1F7DD24D394CE
:10180000D82280FF15C0E114F10431F0CE01959586
:1018100087958770F7018083C80167E040E40E94E4
:10182000870BC5FF05C0C80167E040E20E94870B37
:101830008D2DDF91CF911F910F91FF90EF90DF9051
:10184000089560E070E00E94EB0B0895462F603829
:1018500008F04FE765E00E94870B0895EF92FF9232
:101860000F931F93CF93DF937C01162FEA01022F72
:1018700060E070E00E94480A1F7110621EBD0DB446
:1018800007FEFDCF1EB508C088818EBD0DB407FED2
:10189000FDCF21968EB501500023B1F7C70161E05D
:1018A00070E00E94480A812FDF91CF911F910F9124
:1018B000FF90EF900895EF92FF920F931F93DF93A5
:1018C000CF93CDB7DEB728970FB6F894DEBF0FBE23
:1018D000CDBF7C0109831A832B833C834D835E83B8
:1018E0006F8378878E010F5F1F4F6AE0A80125E0A4
:1018F0000E942E0CC70160E1A80125E00E942E0C79
:10190000F7014481413208F040E2C70161E10E94E1
:10191000870B28960FB6F894DEBF0FBECDBFCF91D0
:10192000DF911F910F91FF90EF9008951F93CF9338
:10193000DF93EC01162F60E070E00E94480A1F71EF
:101940001EBD0DB407FEFDCF8EB58FEF8EBD0DB45D
:1019500007FEFDCF1EB5CE0161E070E00E94480A8F
:10196000812FDF91CF911F91089564E00E94960C22
:1019700008950E94B50C282F30E02F7030704AEF88
:1019800050E0B901649F9001659F300D749F300D48
:10199000112482958F7090E00196A901489F9001D3
:1019A000499F300D589F300D1124C90108950F93A0
:1019B0001F93CF93DF938C01EB0160E00E94960CA4
:1019C000482F437F209729F0219711F4486001C0E8
:1019D0004C60C80160E00E94870BDF91CF911F919E
:1019E0000F910895FF920F931F93CF93DF93EC0114
:1019F0008B0166E00E94960C1A82B7EDFB2EF8224E
:101A00000230110511F480E206C00130110529F4FD
:101A100081E08A8388E0F82A01C01A82CE0166E05C
:101A20004F2D0E94870BCE0166E00E94960C8F1509
:101A300011F481E002C01A8280E0DF91CF911F9102
:101A40000F91FF9008950F931F93CF93DF938C0115
:101A5000EB0166E00E94960C482F497FC330D10508
:101A600071F0C230D10511F444600AC0C130D10513
:101A700011F4426005C0209719F0249709F44660DC
:101A8000C80166E00E94870BDF91CF911F910F91F3
:101A90000895CF93DF93EC016DE10E94960C482FDF
:101AA0004460CE016DE10E94870BCE016DE10E9482
:101AB000960C882369F4CE010E945F0ACE016DE185
:101AC0000E94960C482F4460CE016DE10E94870B66
:101AD000CE016CE10E94960C482F4F63CE016CE161
:101AE0000E94870B81E08E83DF91CF910895FF9252
:101AF0000F931F938C01F62E62E00E94960CE8E68D
:101B0000F0E0EF0DF11DE49141E050E002C0440F20
:101B1000551FEA95E2F740954823C80162E00E940C
:101B2000870B1F910F91FF900895BF92CF92DF9284
:101B3000EF92FF920F931F93DF93CF93CDB7DEB752
:101B400028970FB6F894DEBF0FBECDBF6C01B62E3E
:101B5000E982FA820B831C832D833E834F8358874F
:101B6000662389F4F601E0868A8181878B818287EA
:101B70008C8183878D8184878E8185878F818687FD
:101B80008885878707C0F6E0F61708F43DC081E036
:101B9000681761F4EB2DF0E0E259FF4FE491C601C4
:101BA0006E2FAE014F5F5F4F25E00BC0E62FF0E0D8
:101BB000E259FF4FE491C6016E2FAE014F5F5F4FB8
:101BC00021E00E942E0C0B2D10E0F801EC58FF4F85
:101BD000E491C6016E2FF60144810E94870BC60175
:101BE00062E00E94960C08591F4FF801649121E0B1
:101BF00030E002C0220F331F6A95E2F7482F422BD4
:101C0000C60162E00E94870B28960FB6F894DEBFEB
:101C10000FBECDBFCF91DF911F910F91FF90EF903D
:101C2000DF90CF90BF9008950F931F938C010E9477
:101C3000F10AC80167E10E94960C81701F910F9113
:101C40000895CF93DF93EC0160E00E94960C81FD34
:101C50000EC0CE0160E00E94960C482F4260CE017B
:101C600060E00E94870B80E991E00E94A422DF914E
:101C7000CF910895EF92FF920F931F93CF93DF932D
:101C8000EC017B01042F122F60E00E94960C482F7C
:101C90004E7FCE0160E00E94870BCE010E94210E94
:101CA000112311F420EA01C020EBCE01B701402F2F
:101CB0000E94400B888161E00E9490238AE090E0BE
:101CC0000E94A422888160E00E949023DF91CF913E
:101CD0001F910F91FF90EF900895CF93DF93EC0148
:101CE00060E00E94960C482F4160CE0160E00E94A7
:101CF000870BCE010E94210ECE0167E040E70E94D3
:101D0000870B88859985892B9A85892B9B85892BBB
:101D10009C85892B9D85892B9E85892B9F85892B69
:101D200041F0AE01485F5F4FCE016AE025E00E94BE
:101D30002E0C888161E00E949023DF91CF9108955D
:101D4000CF93DF93EC01888161E00E945123898168
:101D500061E00E9451230E941F0A888160E00E9476
:101D60009023CE0161E070E00E94480A65E070E0D7
:101D700080E090E00E94E922CE0164E04FE50E94FD
:101D8000870BCE0163E070E00E94230DCE0162E07C
:101D900070E00E94F20C882311F081E08B83CE0169
:101DA00060E070E00E94F20CCE0162E070E00E9400
:101DB000D70CCE016CE140E00E94870BCE0167E0BA
:101DC00040E70E94870BCE016CE40E94260CCE01F6
:101DD0000E94C80ACE010E94B00ADF91CF910895F7
:101DE000EF92FF920F931F93CF93DF937C01162FF7
:101DF000EA01022F60E070E00E94480A1F711EBDD8
:101E00000DB407FEFDCF1EB59FEF07C09EBD0DB4FC
:101E100007FEFDCF8EB5899301500023B9F7C701A6
:101E200061E070E00E94480A812FDF91CF911F91FD
:101E30000F91FF90EF9008956F927F928F929F92F3
:101E4000AF92BF92CF92DF92EF92FF920F931F93C8
:101E5000DF93CF9300D00F92CDB7DEB78C010E94F5
:101E60003A0E0E947E224B015C01C8010E94B90C0F
:101E70003E010894611C711C6C01EE24FF24C80112
:101E800068E0A30121E00E94F00E807321F50E941A
:101E90007E22681979098A099B096C157D058E05D2
:101EA0009F05C8F4ECCFC8010E947A0AF801878325
:101EB0008F2D0F900F900F90CF91DF911F910F9169
:101EC000FF90EF90DF90CF90BF90AF909F908F905A
:101ED0007F906F90089598012B5F3F4FC801BE011E
:101EE0006E5F7F4FAE014D5F5F4F0E94BD0BFA806A
:101EF000F80185818823E1F2D6CFAC01FB01DC013A
:101F0000759681E201900D928150E1F7CA01089522
:101F1000CF92DF92EF92FF920F931F93DF93CF93B5
:101F2000CDB7DEB7CC52D1400FB6F894DEBF0FBEAE
:101F3000CDBFC75CDE4FC880D980C953D140C95CD2
:101F4000DE4FE881F981C753D1408289882331F47B
:101F500082EB94E06EEA71E00E94A8218E01055C9C
:101F60001E4F7E010894E11CF11CC7016CE271E078
:101F7000A60198010E94B905C95CDE4FE881F9818C
:101F8000C753D1408289882359F4C7016CE370E0BC
:101F9000A60198010E94B9058AE08CAF1DAE07C06A
:101FA000C7016BE271E0A60198010E94B90582EBBE
:101FB00094E0BE016F5F7F4F0E94A821C45DDE4F99
:101FC0000FB6F894DEBF0FBECDBFCF91DF911F914A
:101FD0000F91FF90EF90DF90CF900895DF93CF9314
:101FE000CDB7DEB72EA11D82293198F430E0E9E1AA
:101FF000F0E0E21BF30B295F3F4F85E090E08C0F90
:102000009D1F280F391FC90160E070E0AF010E94D9
:102010007A05FE01359690E058E1BE016A5D7F4F7A
:10202000308128E0832F8927482F417080FD952734
:102030009695413009F49068215011F03695F2CF11
:102040003196E617F70761F7892FCF91DF91089551
:102050001F93CF93DF93EC011D892DB73EB722521A
:1020600030400FB6F8943EBF0FBE2DBF2F5F3F4FDD
:10207000D901FC01759681E201900D928150E1F742
:10208000F90161A3CE010E94EE0F982F8E8987700F
:102090002DB73EB72E5D3F4F0FB6F8943EBF0FBE33
:1020A0002DBF813011F082E003C080E0191381E080
:1020B000DF91CF911F9108959F92AF92BF92CF92DF
:1020C000DF92EF92FF920F931F93CF93DF93EC0178
:1020D000F82EED2E0E947A0AC82EBE016B5E7F4F4D
:1020E000CE014C2D0E94140E6C2D6750CE010E9423
:1020F0002810B82E9924882309F091C0992493942C
:102100008A8D82958F70843021F48B8D8A3009F40A
:1021100086C06AE070E080E090E00E94E9228F2DA6
:102120009E2D0E94E00A988D92959F70898D8295D0
:10213000807F892B282F30E040E050E060E070E0A5
:1021400080E090E0022FF1E0313C08F4F0E0E1E0C3
:102150004C3A08F4E0E02BEAA22EAF0EE060F1E08A
:102160005E3C08F4F0E09DECD92EDE0EE1E0ADEC33
:10217000DA1608F0E0E0FE2BA1E06C3A08F4A0E0EB
:10218000BF2FB555E1E0BB3A08F0E0E0AE2BF1E03F
:10219000772309F4F0E0E1E0882309F4E0E08F2DF3
:1021A0009E2D10EC2A2D3D2D4B2F5A2F6F2F7E2F59
:1021B0000E945B0CBE016E5E7F4F8F2D9E2D41E015
:1021C00020E00E941C0F8F2D9E2D60E00E94770D55
:1021D0008F2D9E2D0E946D0E00D000D000D0EDB747
:1021E000FEB73196ADB7BEB71296DC93CE9311977A
:1021F00081E692E093838283988D92959F70898D7A
:102200008295807F892B848315820E94880F8DB7E9
:102210009EB706960FB6F8949EBF0FBE8DBFFE0107
:10222000EC0DF11D158A8E8982958F709F89792F0B
:102230007295707F782B92959F70888D682F62952C
:10224000607F692B82958F70998D592F5295507FA1
:10225000582B92959F708A8D482F4295407F492B2D
:10226000F82EF2948FE0F8220B8D1D89BB2019F413
:1022700028EB31E008C091E0B91619F02BEB31E002
:1022800002C02EEB31E0ADB7BEB756970FB6F8944B
:10229000BEBF0FBEADBFEDB7FEB731961296DC9351
:1022A000CE9311978BE292E093838283748315829D
:1022B000668317825087118642871386F4861586B7
:1022C00006871786108B118A338B228B6C96D58BE1
:1022D000C48B0E94880F8DB79EB746960FB6F894B0
:1022E0009EBF0FBE8DBF892DDF91CF911F910F91A2
:1022F000FF90EF90DF90CF90BF90AF909F900895A8
:102300005F926F927F928F929F92AF92BF92CF9285
:10231000DF92EF92FF920F931F93DF93CF930F9271
:10232000CDB7DEB77C01562EDC0152969C91292F49
:102330002295207F8E898F70822B8E8B92959F7035
:102340008F89807F892B8F8BEDB7FEB7B2970FB641
:10235000F894FEBF0FBEEDBF2DB73EB72F5F3F4FC6
:10236000D901FE01739681E201900D928150E1F74F
:10237000ECA9D9019196EC93C7010E94EE0F8B8BCB
:102380002DB73EB72E5D3F4F0FB6F8943EBF0FBE40
:102390002DBFADB7BEB756970FB6F894BEBF0FBEF0
:1023A000ADBFEDB7FEB731961296FC92EE92119743
:1023B00023E233E0338322832C8922952F709D8979
:1023C0009295907F922B948315822D8922952F7060
:1023D0009E899295907F922B968317822E892295C3
:1023E0002F709F899295907F922B908711865286AD
:1023F00013862F8922952F70988D9295907F922B1E
:1024000094871586988D92959F7096871786998DDB
:10241000908B118A828B138ACE014A96958B848B7E
:102420000E94880F888D82958F70EDB7FEB77696E3
:102430000FB6F894FEBF0FBEEDBF843011F0DD245F
:1024400006C0DD24898D893011F4DD24D3949E2CBF
:102450008F2CC7010E94E00A30E040E050E060E0CD
:1024600070E080E090E0052DF1E0313C08F4F0E010
:10247000E1E04C3A08F4E0E0ABEABA2EBF0EE060CF
:10248000F1E05E3C08F4F0E04DECC42ECE0EE1E04D
:10249000ADECCA1608F0E0E0FE2BA1E06C3A08F4BF
:1024A000A0E0BF2FB555E1E0BB3A08F0E0E0AE2B6D
:1024B000F1E0772309F4F0E0E1E0882309F4E0E0BB
:1024C000892D982D10EC2B2D3C2D4B2F5A2F6F2F33
:1024D0007E2F0E945B0C4CA95DA9495F5F4F413282
:1024E000510510F040E250E0892D982DBE016D5E3F
:1024F0007F4F2D2D0E941C0F892D982D60E00E948A
:10250000770D892D982D0E946D0EDD2011F001E0D0
:1025100070C00E9470225B016C0101E010E03DE0A0
:10252000632E33E0732E10C000D000D0EDB7FEB79D
:10253000F282E182748263820E94880F11E000E0DF
:102540000F900F900F900F90892D982D0E94210CC5
:10255000882379F4112309F04CC00E9470226A1973
:102560007B098C099D09633371058105910560F331
:10257000DBCF1123F1F5892D982D0E947A0A813045
:1025800019F5892D982DBE016F5F7F4F41E00E94A4
:10259000140E8981581659F000D000D0ADB7BEB7DF
:1025A0001296FC92EE92119784EE92E017C000D042
:1025B00000D0EDB7FEB7F282E18282ED92E0948323
:1025C00083830E94880F11C000D000D0ADB7BEB782
:1025D0001296FC92EE92119785EB92E014969C93E2
:1025E0008E9313970E94880F00E00F900F900F902A
:1025F0000F90802F0F90CF91DF911F910F91FF903F
:10260000EF90DF90CF90BF90AF909F908F907F9092
:102610006F905F9008956F927F928F92AF92CF925A
:10262000DF92EF92FF920F931F93DF93CF93CDB77B
:10263000DEB73C011A2D882D8170880F880F880F16
:102640008870962F9295907F8160982BF301968BDE
:10265000842F8295807F62956F70862B878B429541
:102660004F70808D807F842B808F922F9295907FEA
:10267000818D8F70892B818F0295007F22952F701D
:10268000202B228FE38EEA2CFF24C3014C96B60147
:10269000A7010E948105193178F4E9E1F0E0EE1913
:1026A000FF099701245E3F4F260D371DC90160E0E9
:1026B00070E0AF010E947A05CF91DF911F910F91D9
:1026C000FF90EF90DF90CF90AF908F907F906F90C2
:1026D00008952F923F924F925F926F927F928F92C6
:1026E000AF92BF92CF92DF92EF92FF920F931F9320
:1026F000CF93DF93EC018A89882309F463C1188A98
:10270000823009F457C0282F30E040E050E060E00C
:1027100070E080E090E0E22E01E0313C08F400E05F
:1027200011E04C3A08F410E005551060E1E05E3C21
:1027300008F4E0E01353F1E01D3C08F0F0E0EF2B6B
:10274000F1E06C3A08F4F0E0BE2FB555E1E0BB3A99
:1027500008F0E0E0FE2BA1E0772309F4A0E0E1E03F
:10276000882309F4E0E0CE0161E020ECF22E2B2F6B
:102770003F2F4A2F5E2F0E94950D00D000D000D031
:10278000EDB7FEB73196ADB7BEB71296DC93CE93D8
:1027900011978DE094E0938382838A8984831582E4
:1027A0000E94880FEDB7FEB736960FB6F894FEBFBD
:1027B0000FBEEDBF8FEF8B8BBC889CE1492E512C57
:1027C0004C0E5D1E85E1682E712C6C0E7D1E02E99B
:1027D000202E03E0302EE2C0CE016A894FEF2FEFAA
:1027E00004E019E0E12EB1ECCB2EB1E0DB2EAA24FF
:1027F00088240E940B138DB79EB783970FB6F89469
:102800009EBF0FBE8DBF2DB73EB72F5F3F4FD90183
:10281000F30181E201900D928150E1F7D901929686
:102820001C921E929197CE016FEF0E948011EDB71E
:10283000FEB7B3960FB6F894FEBF0FBEEDBF0E9471
:1028400070226B017C0187C0CE010E94B2158823E3
:1028500009F481C08A8D82958F70843009F07BC025
:102860008B8D8A3009F077C00F89802F82958F7009
:10287000988D9295907F982B8A89981709F06BC054
:10288000C2010E945C05182F282F30E08B8990E050
:10289000019728173907BCF51F5F1B8B11508E89D4
:1028A00082958F700295007F082B0C8B8DB79EB799
:1028B00008970FB6F8949EBF0FBE8DBFEDB7FEB759
:1028C0003196ADB7BEB71296DC93CE9311978DEECD
:1028D00093E0938382839E8992959F708F898295DE
:1028E000807F892B84831582378326830E94880FFB
:1028F000ADB7BEB718960FB6F894BEBF0FBEADBF4A
:10290000112349F534C0EDB7FEB738970FB6F894E8
:10291000FEBF0FBEEDBF3196ADB7BEB71296DC93CA
:10292000CE93119789EC93E0938382839E8992954D
:102930009F708F898295807F892B8483158237834E
:1029400026830E94880FADB7BEB718960FB6F894CD
:10295000BEBF0FBEADBF0E9470226C197D098E09EB
:102960009F09685873418040904008F46DCF8B896F
:102970008F3FA1F400D000D0EDB7FEB7D283C18362
:10298000348223820E94880F0F900F900F900F9037
:1029900060E177E280E090E00E94E9228B898F3F3E
:1029A00009F41ACF4C894B1569F081EB94E061E092
:1029B00070E00E945E1981EB94E062E070E04B8968
:1029C0000E945E19DF91CF911F910F91FF90EF90C0
:1029D000DF90CF90BF90AF908F907F906F905F907F
:1029E0004F903F902F900895FF920F931F93DF9386
:1029F000CF93CDB7DEB78C0100D000D0EDB7FEB7D6
:102A0000928381838CE593E0948383830E94880F73
:102A10008DB79EB74F970FB6F8949EBF0FBE8DBF70
:102A20002DB73EB72F5F3F4FD901FE01389681E2A7
:102A300001900D928150E1F789A59AA5F90192A321
:102A400081A3C801F80164890E948011F82E8823AF
:102A500011F0FF24F3948DB79EB783960FB6F894C8
:102A60009EBF0FBE8DBFFF2079F4F80182898823B5
:102A700059F08089853118F0C8010E946913F80166
:102A800080898F5F808B02C0F801108A8F2DCF91D3
:102A9000DF911F910F91FF9008950F931F93CF9394
:102AA000DF93EC01898D82958F709A8D9295907F3E
:102AB000982BFE01E25BFF4F292F2295207F80811A
:102AC0008F70822B8083FE01E15BFF4F92959F7098
:102AD0008081807F892B80838B8DC05BDF4F8883D3
:102AE000C055D0408E010F5A1F4FBE01645E7F4F0C
:102AF000C80149E150E00E948105D8010D900020F5
:102B0000E9F71197A01BB10B2DB73EB72352304008
:102B10000FB6F8943EBF0FBE2DBF4DB75EB74F5FE7
:102B20005F4F9A01BE01665B7F4F81E2FB0101901E
:102B3000BF01F90101929F018150C1F7FA01B2A3CF
:102B4000A1A3CE010E94F4142DB73EB72D5D3F4FD7
:102B50000FB6F8943EBF0FBE2DBFDF91CF911F91EE
:102B60000F9108950F931F93DF93CF930F92CDB7DB
:102B7000DEB78C01BE016F5F7F4F0E94EB0B882395
:102B800009F45DC000D000D000D0EDB7FEB731969B
:102B9000ADB7BEB712961C930E93119787E992E0DA
:102BA000938382838981848315820E94880FEDB785
:102BB000FEB736960FB6F894FEBF0FBEEDBF898103
:102BC0008730E8F5C8010E945C108823C1F1D80164
:102BD00057968C91579782958F7058969C915897DD
:102BE0009295907F982B52968C91981741F500D032
:102BF00000D0EDB7FEB71283018385E792E094839E
:102C000083830E94880FD80156969C91569792957F
:102C10009F7057968C9157978295807F892B0F9044
:102C20000F900F900F9049F45A968C9182958F7067
:102C3000813019F4C8010E944D1581E001C080E087
:102C40000F90CF91DF911F910F9108956F927F9216
:102C50008F92AF92CF92DF92EF920F931F93DF93F9
:102C6000CF93CDB7DEB73C011A2D1A3148F50E943B
:102C70000B132DB73EB7235230400FB6F8943EBF2A
:102C80000FBE2DBFEDB7FEB731969F01A3014B5E7E
:102C90005F4F81E2DA010D90AD01D9010D929D01E6
:102CA0008150C1F711A312A2C3010E94F414EDB721
:102CB000FEB7B3960FB6F894FEBF0FBEEDBF15C0BA
:102CC00000D000D0ADB7BEB712969C938E931197EB
:102CD0008FE793E014969C938E9313970E94880F2E
:102CE00080E00F900F900F900F90CF91DF911F9188
:102CF0000F91EF90DF90CF90AF908F907F906F907B
:102D000008956F927F928F929F92AF92BF92CF92CF
:102D1000DF92EF92FF920F931F93CF93DF93EC011B
:102D2000962EF42EB22E1E2D602E7724CE016A89A7
:102D3000492D2F2D0B2DE12EF1ECCF2EF1E0DF2EC2
:102D4000AA2488240E94261600E026C02A8D822FFD
:102D500082958F7090E086159705F1F48B8D811721
:102D6000D9F4898D82958F702295207F282B2F157D
:102D700099F49E01245E3F4FC901DF91CF911F91CD
:102D80000F91FF90EF90DF90CF90BF90AF909F900A
:102D90008F907F906F900895CE010E94B215882386
:102DA000A9F662E370E080E090E00E94E9220F5F04
:102DB000043691F7BBCFEF920F93E62E60E04FEF12
:102DC00024E004E00E9481160F91EF9008958F9205
:102DD000AF92CF92DF92EF920F93FC01262FE42E59
:102DE000628940E000E052ECC52E51E0D52E3FE074
:102DF000A32E88240E9426160F91EF90DF90CF908B
:102E0000AF908F9008958F92AF92CF92DF92EF9212
:102E10000F939C01E62EC42EE42FF52FDF010D90B9
:102E20000020E9F71197AE1BBF0BF901628940E062
:102E30002FEF04E0D52EAA2E88240E9426160F918B
:102E4000EF90DF90CF90AF908F900895AB01611518
:102E5000710519F06FE00E9403170895AB01611529
:102E6000710519F06EE00E9403170895EF92FF922A
:102E70000F931F938C017A010E942E17C801B7018E
:102E80000E9426171F910F91FF90EF900895EF92E7
:102E9000FF920F931F93CF93DF93EC011A891F3F8B
:102EA00009F0B6C081EB94E060E070E00E94571931
:102EB0008A8B81508E3F08F48EC01A8B00D000D0D0
:102EC000ADB7BEB71296DC93CE93119785EA94E026
:102ED00014969C938E9313970E94880F0F900F90D7
:102EE0000F900F908A89282F30E040E050E060E09A
:102EF00070E080E090E0E22E01E0313C08F400E078
:102F000011E04C3A08F410E005551060E1E05E3C39
:102F100008F4E0E01353F1E01D3C08F0F0E0EF2B83
:102F2000F1E06C3A08F4F0E0BE2FB555E1E0BB3AB1
:102F300008F0E0E0FE2BA1E0772309F4A0E0E1E057
:102F4000882309F4E0E0CE0161E070ECF72E2B2F2E
:102F50003F2F4A2F5E2F0E94950DCE0165E00E9403
:102F6000DB160E945C05282F8A8B8F3F89F400D0E6
:102F700000D0EDB7FEB7D283C18383E694E094839B
:102F800083830E94880F0F900F900F900F90FFCFB8
:102F900000D000D000D0EDB7FEB73196ADB7BEB7C8
:102FA0001296DC93CE9311978CE494E09383828302
:102FB000248315820E94880FEDB7FEB736960FB6B0
:102FC000F894FEBF0FBEEDBF81EB94E060E070E0CF
:102FD0004A890E945E1900D000D000D0EDB7FEB73C
:102FE0003196ADB7BEB71296DC93CE93119789E2B6
:102FF00094E0938382838A89848315820E94880F58
:10300000EDB7FEB736960FB6F894FEBF0FBEEDBF14
:10301000DF91CF911F910F91FF90EF900895DF9274
:10302000EF92FF920F931F93CF93DF93EC018B01ED
:10303000D42E7901188A0E94A00ECE010E94490D5B
:10304000CE0160E00E94B30BCE016FE04FE00E9422
:10305000A90BCE01B8010E94230DCE016D2D0E9457
:10306000260CCE01B7010E94F20CCE0162E070E0A6
:103070000E94D70C8989882371F0CE0162E0EE248A
:10308000EA94E0ECFE2E0BEA1DEC2BEA30E040E087
:1030900050E00E94950DDF91CF911F910F91FF900D
:1030A000EF90DF900895CF92DF92EF92FF920F930F
:1030B0001F93CF93DF93EC01F62E6A01E22E82EB91
:1030C00094E040E051EE60E070E026E00E94861E51
:1030D000FA8A8989882319F422ED31E002C029EDAA
:1030E00031E000D000D000D0EDB7FEB73196ADB7DB
:1030F000BEB71296DC93CE9311978EEF94E0938334
:103100008283358324830E94880F8DB79EB70696ED
:103110000FB6F8949EBF0FBE8DBFCE01B6014E2DE7
:1031200098010E940F1881EB94E061E070E00E942A
:1031300057198C8B81EB94E062E070E00E94571984
:103140008B8B8C898F3F19F4CE010E946913ADB728
:10315000BEB718970FB6F894BEBF0FBEADBFEDB7A0
:10316000FEB731961296DC93CE93119787EE94E0DA
:10317000938382838C89848315828B8986831782CB
:103180000E94880F8DB79EB708960FB6F8949EBF21
:103190000FBE8DBFCE010E9447178A89282F30E0CD
:1031A00040E050E060E070E080E090E0E22E01E07E
:1031B000313C08F400E011E04C3A08F410E0055509
:1031C0001060E1E05E3C08F4E0E01353F1E01D3CE8
:1031D00008F0F0E0EF2BF1E06C3A08F4F0E0BE2FDD
:1031E000B555E1E0BB3A08F0E0E0FE2BA1E0772323
:1031F00009F4A0E0E1E0882309F4E0E0CE0161E019
:1032000020ECF22E2B2F3F2F4A2F5E2F0E94950D80
:103210008989882311F441E101C042E1CE016FEFB9
:103220000E94E716BE016A5C7F4F8C8990E04AE0FD
:1032300050E00E949005AC01CE0167E00E940317A8
:10324000FE01E55BFF4F8081887F8160982F977F2B
:1032500090839A899295907F8770892B80838A8941
:10326000C45BDF4F82958F708883CC54D040FE01C1
:10327000E35BFF4F8081807F8083FE01E15BFF4F36
:1032800080818F7080618083DF91CF911F910F913A
:10329000FF90EF90DF90CF9008950F931F938C01D4
:1032A0000E94360AF801118A1F910F910895F99929
:1032B000FECF72BD61BDF89A80B50895F999FECF31
:1032C0001FBA72BD61BD40BD0FB6F894FA9AF99A63
:1032D0000FBE08956435710508F03FC057FD3DC02D
:1032E00040335105D4F5DA0183E0B595A7958A9569
:1032F000E1F747705070232BC1F084E590E0A89F60
:10330000F001A99FF00DB89FF00D1124E60FF71FF3
:10331000E052FE4F81E090E002C0880F991F4A956D
:10332000E2F72081282B2083089584E590E0A89F70
:10333000F001A99FF00DB89FF00D1124E60FF71FC3
:10334000E052FE4F81E090E002C0880F991F4A953D
:10335000E2F780952081282320830895CF93DF937F
:10336000DC0188EF91E0E0EEF1E0EF019C011992C1
:1033700021503040E1F71D961C921E921C971F961B
:103380001C921E921E97DF91CF9108951F93CF93A9
:10339000DF93EC01162F898D60E00E9490238B8DC6
:1033A00018161CF460E00E94902330E840E050E0E2
:1033B000612F70E0EE8DFF8D90818DA18095892326
:1033C0008083832F90E086239723EC8DFD8D2CA1A5
:1033D000892B21F08081822B808304C080812095FD
:1033E00028232083EE8DFF8D80819DA1892B8083F2
:1033F00036954F5F5F4F48305105E1F68B8D1816BB
:103400001CF461E00E949023DF91CF911F910895F9
:103410001F93CF93DF93EC01162F67FD1FE7CE01BB
:1034200061E20E94C6191068CE01612F0E94C61980
:10343000CE0160E20E94C619DF91CF911F910895DD
:10344000CF92DF92FF920F931F93CF93DF93EC0104
:10345000FF2400E010E06F2D6064CE010E94C619C9
:10346000CE0160E80E94C619898D61E00E94902318
:103470008B8D18161CF460E00E949023D801A05296
:10348000BE4F60E08C9130E840E050E0C82EDD2473
:10349000EE8DFF8D90818DA1809589238083832F70
:1034A00090E08C219D21EC8DFD8D2CA1892B21F0AC
:1034B0008081822B808304C08081209528232083F3
:1034C000EE8DFF8D80819DA1892B808336954F5F86
:1034D0005F4F48305105E1F66F5F1196643591F604
:1034E0008B8D18161CF461E00E949023F3940C5A03
:1034F0001F4F86E0F81609F0AECFCE0160E40E94BF
:10350000C619DF91CF911F910F91FF90DF90CF905F
:1035100008951F93CF93DF93EC01162F8F8961E0FD
:103520000E945123888D61E00E945123898D61E0C2
:103530000E9451238A8D18161CF461E00E945123C9
:103540008B8D18161CF461E00E9451238A8D181689
:1035500084F460E00E94902388E893E120E931E060
:10356000F9013197F1F70197D9F78A8D61E00E944F
:103570009023E88D2E2F332727FD3095F901EC5D40
:10358000F54FE491F0E0EE0FFF1FE05FF54F8591FE
:1035900094919F8F8E8F285C354FF90184918DA374
:1035A000EF892E2F332727FD3095F901EC5DF54F7C
:1035B000E491F0E0EE0FFF1FE05FF54F85919491ED
:1035C0009D8F8C8F285C354FF90184918CA3EB8DF6
:1035D0002E2F332727FD3095F901EC5DF54FE4914F
:1035E000F0E0EE0FFF1FE05FF54F8591949199A3F6
:1035F00088A3285C354FF90184918EA3E98D2E2F85
:10360000332727FD3095F901EC5DF54FE491F0E0AB
:10361000EE0FFF1FE05FF54F859194919BA38AA366
:10362000285C354FF90184918FA3CE0161E20E949D
:10363000C619CE0164E10E94C61917FD1FE7106884
:10364000CE01612F0E94C619CE0160E20E94C61908
:10365000CE016CE00E94C619CE010E94201ADF91B3
:10366000CF911F910895BF92CF92DF92EF92FF9278
:103670000F931F936C01B62E142FF22E64E570E0A9
:1036800040E350E00E94561B8CED93E0F6019183DD
:103690008083178BB08EF18EE28E038F1F910F9176
:1036A000FF90EF90DF90CF90BF900895FC011382C0
:1036B000128284EF93E091838083758364835783C0
:1036C00046837187608753874287158A15861486DB
:1036D0001786168621E0248B8FEF9FEF938B828BCA
:1036E000918B808B268B08952F923F924F925F9201
:1036F0006F927F928F929F92AF92BF92CF92DF9202
:10370000EF92FF920F931F93DF93CF9300D000D0DF
:10371000CDB7DEB73C017C836B836A015901FA8225
:10372000E982222433249801241B350B37FF03C080
:10373000309521953F4FC5014B815C81841B950BD2
:1037400097FF03C0909581959F4F821793075CF474
:1037500081E0282E312CC601CB80DC809C838B83BA
:10376000C80185015C018B819C81A816B90644F4CF
:10377000C501AB80BC809C838B83C80186016C0132
:103780002501AB81BC814A1A5B0A7801EC18FD085F
:10379000F7FE04C0F094E194F108F394C016D1064A
:1037A00024F088248A94982C03C0B1E08B2E912CAD
:1037B000C20162E070E00E9404248B0125C0D301A5
:1037C000ED91FC912114310441F00480F581E02D4C
:1037D000C301B6014B815C8107C00480F581E02DF7
:1037E000C3016B817C81A60129813A8109950E195B
:1037F0001F0917FF04C0C80CD91C040D151DEB814F
:10380000FC813196FC83EB834B815C81A416B50669
:10381000B4F60F900F900F900F90CF91DF911F9102
:103820000F91FF90EF90DF90CF90BF90AF909F905F
:103830008F907F906F905F904F903F902F90089562
:103840004F925F926F927F928F929F92AF92BF92B0
:10385000CF92DF92EF92FF920F931F936C015B0167
:103860004A0139012801DC01ED91FC910284F385C4
:10387000E02D87010995D601ED91FC91A4014150FD
:103880005040440D551D0284F385E02DC601B5015D
:1038900093010995D601ED91FC910084F185E02D0D
:1038A000C601B501A40192010995D601ED91FC91E3
:1038B0000894A108B108A60CB71C0084F185E02D7E
:1038C000C601B501A401920109951F910F91FF90C6
:1038D000EF90DF90CF90BF90AF909F908F907F90B0
:1038E0006F905F904F900895CF92DF92EF92FF928A
:1038F0000F931F93DC016B017801ED91FC918A011C
:1039000001501040020F131F0680F781E02D960131
:1039100009951F910F91FF90EF90DF90CF90089540
:10392000CF92DF92EF92FF920F931F93DC016A0117
:10393000C9017801ED91FC9111979B012150304014
:10394000280F391F0680F781E02DCD0186010995EA
:103950001F910F91FF90EF90DF90CF9008956F929D
:103960007F928F929F92AF92BF92CF92DF92EF920F
:10397000FF920F931F93CF93DF935C013A0169018C
:103980004801EB01C60ED71E0DC0D501ED91FC918B
:103990000084F185E02DC501BE01A30194018701DA
:1039A00009952196CC15DD0584F3DF91CF911F9108
:1039B0000F91FF90EF90DF90CF90BF90AF909F90CE
:1039C0008F907F906F900895EF92FF920F931F93C7
:1039D000FC017B01A081B1812085318502851385A1
:1039E0001E960D90BC91A02D60E070E040E050E08C
:1039F000FD0109951F910F91FF90EF9008952F926F
:103A00003F924F925F926F927F928F929F92AF926E
:103A1000BF92CF92DF92EF92FF920F931F93DF93AB
:103A2000CF93CDB7DEB72F970FB6F894DEBF0FBE9A
:103A3000CDBF5C015E834D8318870F83FA86E986CC
:103A4000CB86DC0118968D919C91199768177907A0
:103A50000CF0A4C01A968D919C911B97481759079A
:103A60000CF09CC0EC2DF0E0FF87EE87CF01880FB3
:103A7000991F8E0F9F1F880F991F860F971F18166B
:103A800019060CF08BC0CF01F3E0880F991FFA954F
:103A9000E1F7840F951F181619060CF07FC085E01A
:103AA000289FA00111245A8349832B011B011C82EA
:103AB0005C81553011F480E005C0E981FA81E55F51
:103AC000FA4F84912C863D866D807E8043011B8257
:103AD000C82EDD2480FF1CC0D501ED91FC91BB8573
:103AE000B13049F40480F581E02DC501B201A30194
:103AF0002F81388522C00684F785E02DC5016C85AD
:103B00007D85A4012E853F858901EF80F88423C03F
:103B1000E985FA852F813885E217F307E9F0D501A9
:103B2000ED91FC91BB85B13051F40480F581E02D1D
:103B3000C501B201A30129853A8509950DC0068406
:103B4000F785E02DC5016C857D85A4012E853F8517
:103B50008901E984FA840995EB81EF5FEB832E8577
:103B60003F85820E931E0894611C711CE83021F081
:103B7000D594C7948C2DACCF3C813F5F3C834E8560
:103B80005F85240E351E0894411C511C89819A8141
:103B900001969A838983363009F08ACF2F960FB623
:103BA000F894DEBF0FBECDBFCF91DF911F910F9173
:103BB000FF90EF90DF90CF90BF90AF909F908F904D
:103BC0007F906F905F904F903F902F900895CF928D
:103BD000EF92FF920F931F93CF93DF93EC01262F69
:103BE0006A3061F42C8930E003E0220F331F0A951C
:103BF000E1F78E859F85820F931F37C06D30C9F125
:103C00006C857D854E855F8508891989EA88FB88E2
:103C1000CC880E94FF1C2C8986E0289FB0011124CB
:103C20008C859D85680F791F7D876C878E89882399
:103C300001F1422F50E08AEF9FEF9C01429FC001AB
:103C4000439F900D529F900D112428853985820F36
:103C5000931F861797076CF413E0440F551F1A95AE
:103C6000E1F78E859F85840F951F9F878E871D8620
:103C70001C8681E090E0DF91CF911F910F91FF9022
:103C8000EF90CF900895FC0175876487578746872A
:103C90000895FC01662309F461E0648B0895FC013A
:103CA000738B628B718B608B08950895DC015C9639
:103CB0008C915C97FD01E80FF11DE35AFF4F2081C5
:103CC0005C968C915C9790E001968F7390705C96F7
:103CD0008C935C975696ED91FC9157972083509664
:103CE000ED91FC9151978081806480835B969C91DB
:103CF0005B975C968C915C97981739F45296ED918E
:103D0000FC91539780818F7D80830895DF92EF929D
:103D1000FF920F931F93CF93DF93EC017A018B01F6
:103D2000D22EE889F98982E08083403081EE5807FD
:103D300080E0680780E07807A1F060E079E08DE33B
:103D400090E0A80197010E94172421503040404084
:103D50005040569547953795279580E12030380794
:103D600098F0E889F989108260E874E88EE190E0C3
:103D7000A80197010E941724215030404040504034
:103D80005695479537952795EC85FD853083EE85CB
:103D9000FF852083188EEC89FD89D082EA89FB8912
:103DA000808180618083EA89FB898081886080834B
:103DB000EA89FB89808180688083EA89FB89808128
:103DC0008F7D8083DF91CF911F910F91FF90EF90B6
:103DD000DF900895FC01218D828D30E0205C3F4F03
:103DE000281B31092F733070C9010895FC01918D92
:103DF000828D981719F42FEF3FEF06C0828DE80FE0
:103E0000F11D858D282F30E0C9010895DC015996F8
:103E10009C9159975A968C915A97981719F42FEFAD
:103E20003FEF10C05A968C915A97FD01E80FF11D93
:103E3000958D5A968C915A978F5F8F735A968C9363
:103E4000292F30E0C9010895CF93DF93EC01888DCD
:103E5000882361F419C08C9185FF0AC0E889F9892B
:103E6000808185FF05C0CE010E94561EAA89BB89AC
:103E70008C9185FD05C0E889F989808186FD04C0A3
:103E80000FB607FEE8CFF4CFDF91CF9108950F93DF
:103E90001F93CF93DF93EC01062F9B8D8C8D98178A
:103EA00091F5E889F989808185FF2DC0EE89FF8928
:103EB0006083E889F9898081806480831DC00FB6A2
:103EC00007FC08C0E889F989808185FF03C0CE011D
:103ED0000E94561E8C8D181791F38B8DFE01E80FF2
:103EE000F11DE35AFF4F00831B8FEA89FB89808114
:103EF0008062808381E0888F81E090E0DF91CF91C4
:103F00001F910F9108951B8D1F5F1F73E3CF8FE0EB
:103F100090E2892B51F080E090E0892B31F00E94F3
:103F20000F20882311F00E94000008951F920F9225
:103F30000FB60F9211242F938F939F93EF93FF93BC
:103F4000E091C204F091C304808182FD16C0E0912B
:103F5000C804F091C90420819091CB049F5F9F73A6
:103F60008091CC04981771F0E091CB04F0E0EE540E
:103F7000FB4F258F9093CB0405C0E091C804F091CE
:103F8000C904E081FF91EF919F918F912F910F9044
:103F90000FBE0F901F9018951092B5041092B404A4
:103FA00088EE93E0A0E0B0E08093B6049093B7046D
:103FB000A093B804B093B9048CE094E09093B30458
:103FC0008093B20485EC90E09093BF048093BE048C
:103FD00084EC90E09093C1048093C00480EC90E066
:103FE0009093C3048093C20481EC90E09093C50445
:103FF0008093C40482EC90E09093C7048093C6043D
:1040000086EC90E09093C9048093C8041092CB048E
:104010001092CC041092CD041092CE04089582EB3D
:1040200094E00E94EA1E20E0892B09F021E0822F13
:1040300008951F920F920FB60F9211242F933F9362
:104040004F935F936F937F938F939F93AF93BF93A0
:10405000EF93FF9382EB94E00E94561EFF91EF9145
:10406000BF91AF919F918F917F916F915F914F9190
:104070003F912F910F900FBE0F901F901895CF92E8
:10408000DF92EF92FF920F931F93CF93DF937C0108
:104090006B018A01C0E0D0E00FC0D6016D916D01C7
:1040A000D701ED91FC910190F081E02DC7010995B8
:1040B000C80FD91F015010400115110571F7CE012D
:1040C000DF91CF911F910F91FF90EF90DF90CF90F4
:1040D0000895EF92FF920F931F938C01DC01ED91F5
:1040E000FC910190F081E02D6DE009957C01D801F3
:1040F000ED91FC910190F081E02DC8016AE00995F5
:104100009C012E0D3F1DC9011F910F91FF90EF9053
:104110000895CF93DF93EC016115710519F420E048
:1041200030E00FC0DB010D900020E9F71197A61BCE
:10413000B70BE881F9810280F381E02DAD0109958B
:104140009C01C901DF91CF9108954F925F927F92B8
:104150008F929F92AF92BF92CF92DF92EF92FF9297
:104160000F931F93DF93CF93CDB7DEB7A1970FB611
:10417000F894DEBF0FBECDBF2C01742ECB012230D0
:1041800008F42AE019A231E2C32ED12CCC0EDD1E98
:10419000822E9924AA24BB24672D752FA501940192
:1041A0000E94172479018A01C801B701A501940171
:1041B0000E94E523472D461B0894C108D1084A30C8
:1041C00014F4405D01C0495CF6014083E114F10440
:1041D0000105110521F07E2C5F2DC801DDCFC20144
:1041E000B6010E948920A1960FB6F894DEBF0FBEDB
:1041F000CDBFCF91DF911F910F91FF90EF90DF9096
:10420000CF90BF90AF909F908F907F905F904F9096
:104210000895DC012115310541F4ED91FC910190E7
:10422000F081E02D642F099508950E94A52008953E
:10423000CF92DF92EF92FF920F931F936C01E62EC5
:104240009A01FF2400E010E0B801A7010E940921B3
:104250008C01C6010E946920080F191FC8011F9117
:104260000F91FF90EF90DF90CF900895CF92DF9263
:10427000EF92FF920F931F93CF93DF93EC016A01AC
:104280007B012115310541F4E881F9810190F0812C
:10429000E02D642F09951FC02A303105D1F477FF36
:1042A00017C0E881F9810190F081E02D6DE2099558
:1042B0008C0144275527BA014C195D096E097F0905
:1042C000CE012AE00E94A5209801280F391F04C0C2
:1042D0002AE00E94A5209C01C901DF91CF911F9186
:1042E0000F91FF90EF90DF90CF900895EF92FF92A3
:1042F0000F931F937B019A010027F7FC0095102F65
:10430000B801A7010E9436211F910F91FF90EF90F5
:104310000895CF92DF92EF92FF920F931F936C015B
:104320007B019A010027F7FC0095102FB801A70127
:104330000E9436218C01C6010E946920080F191FB6
:10434000C8011F910F91FF90EF90DF90CF900895DB
:104350000E9489200895EF92FF920F931F937C0192
:104360000E9489208C01C7010E946920080F191F33
:10437000C8011F910F91FF90EF9008951F920F9227
:104380000FB60F9211242F933F934F935F936F9328
:104390007F938F939F93AF93BF93EF93FF938091FE
:1043A0004F0590915005892B29F0E0914F05F09130
:1043B00050050995FF91EF91BF91AF919F918F911A
:1043C0007F916F915F914F913F912F910F900FBE11
:1043D0000F901F9018951F920F920FB60F921124F5
:1043E0002F933F934F935F936F937F938F939F93FD
:1043F000AF93BF93EF93FF93809151059091520536
:10440000892B29F0E0915105F09152050995FF9112
:10441000EF91BF91AF919F918F917F916F915F913C
:104420004F913F912F910F900FBE0F901F901895B5
:10443000CF93DF930E94AE220E947E09C7E8DFE19E
:104440000E9425092097E1F30E94871FF9CF089564
:104450001F920F920FB60F9211242F933F938F93B9
:104460009F93AF93BF938091570590915805A0916A
:104470005905B0915A0530915B050196A11DB11DFA
:10448000232F2D5F2D3720F02D570196A11DB11D33
:1044900020935B058093570590935805A093590589
:1044A000B0935A058091530590915405A0915505FC
:1044B000B09156050196A11DB11D809353059093AF
:1044C0005405A0935505B0935605BF91AF919F91A8
:1044D0008F913F912F910F900FBE0F901F901895C5
:1044E0008FB7F894209157053091580540915905A0
:1044F00050915A058FBFB901CA0108959FB7F8942A
:104500002091530530915405409155055091560521
:1045100086B5A89B06C08F3F21F02F5F3F4F4F4FBE
:104520005F4F9FBF542F432F322F2227280F311D5B
:10453000411D511D82E0220F331F441F551F8A95D4
:10454000D1F7B901CA010895019739F0880F991F71
:10455000880F991F02970197F1F70895789484B511
:10456000826084BD84B5816084BD85B5826085BD6F
:1045700085B5816085BDEEE6F0E080818160808355
:10458000E1E8F0E010828081826080838081816038
:104590008083E0E8F0E0808181608083E1EBF0E0FF
:1045A000808184608083E0EBF0E0808181608083A3
:1045B000EAE7F0E08081846080838081826080838C
:1045C0008081816080838081806880831092C100B7
:1045D0000895EF92FF920F931F93CF93DF937B0188
:1045E0008C013FB7F8948091530590915405A091A8
:1045F0005505B091560526B5A89B05C02F3F19F06B
:104600000196A11DB11D3FBFBA2FA92F982F882752
:10461000820F911DA11DB11D52E0880F991FAA1F85
:10462000BB1F5A95D1F7EC0130C00E94E4233FB77D
:10463000F8948091530590915405A0915505B0913F
:10464000560526B5A89B05C02F3F19F00196A11D60
:10465000B11D3FBFBA2FA92F982F8827820F911D18
:10466000A11DB11D32E0880F991FAA1FBB1F3A95EB
:10467000D1F78C1B9D0B885E9340B8F20894E1083B
:10468000F10801091109C851DC4FE114F1040105D9
:10469000110559F6DF91CF911F910F91FF90EF9087
:1046A0000895CF93DF93482F50E0CA01885C954F5F
:1046B000FC0134914C5D554FFA018491882369F1D6
:1046C00090E0880F991FFC01EA5FF54FA591B49126
:1046D000FC01E05FF54FC591D491662351F42FB7EB
:1046E000F8948C91932F909589238C9388818923BA
:1046F0000BC0623061F42FB7F8948C91932F909592
:1047000089238C938881832B88832FBF06C09FB712
:10471000F8948C91832B8C939FBFDF91CF91089558
:10472000482F50E0CA01845B954FFC012491CA01D7
:10473000885C954FFC0194914C5D554FFA01349182
:10474000332309F440C0222351F1233071F0243087
:1047500028F42130A1F0223011F514C02630B1F038
:104760002730C1F02430D9F404C0809180008F77C5
:1047700003C0809180008F7D8093800010C084B53D
:104780008F7702C084B58F7D84BD09C08091B00051
:104790008F7703C08091B0008F7D8093B000E32FAE
:1047A000F0E0EE0FFF1FE05FF54FA591B4912FB73A
:1047B000F894662321F48C919095892302C08C9102
:1047C000892B8C932FBF08950895629FD001739F0A
:1047D000F001829FE00DF11D649FE00DF11D929F9D
:1047E000F00D839FF00D749FF00D659FF00D9927DC
:1047F000729FB00DE11DF91F639FB00DE11DF91F00
:10480000BD01CF011124089597FB092E07260AD078
:1048100077FD04D02ED006D000201AF47095619553
:104820007F4F0895F6F7909581959F4F0895A1E2E7
:104830001A2EAA1BBB1BFD010DC0AA1FBB1FEE1F1A
:10484000FF1FA217B307E407F50720F0A21BB30B65
:10485000E40BF50B661F771F881F991F1A9469F7E1
:1048600060957095809590959B01AC01BD01CF013D
:104870000895AA1BBB1B51E107C0AA1FBB1FA617A7
:10488000B70710F0A61BB70B881F991F5A95A9F7F9
:1048900080959095BC01CD010895EE0FFF1F059006
:1048A000F491E02D09942F923F924F925F926F9274
:1048B0007F928F929F92AF92BF92CF92DF92EF92B0
:1048C000FF920F931F93CF93DF93CDB7DEB7CA1B31
:1048D000DB0B0FB6F894DEBF0FBECDBF09942A885C
:1048E000398848885F846E847D848C849B84AA8404
:1048F000B984C884DF80EE80FD800C811B81AA8191
:10490000B981CE0FD11D0FB6F894DEBF0FBECDBF5B
:08491000ED010895F894FFCFBA
:104918006D657373616765547970653A00576520F2
:104928006861766520612074656D703A005765206E
:104938006861766520612068756D3A00543A2000F8
:10494800543A00483A2000483A00436865636B6966
:104958006E6720666F72206D6561737572656D652F
:104968006E743A004D6561737572656D656E74207D
:10497800666F756E643A004E4F206D65617375728F
:10498800656D656E7420666F756E643A0053746168
:104998007274696E67204C43442073656E736F723E
:1049A800206E6F652076302E313A004C434400313A
:1049B8002E30005265676973746572642E00303B4F
:1049C800303B343B31313B006F6B006576006563EB
:1049D8000000312E33623320283534316364343398
:1049E800290073656E736F720072656C6179000AD5
:1049F80000000000000000000000000000000000AF
:104A0800000000000000000000000000000000009E
:104A1800000000000000C0E0F0F8FCFCFEFFFCE035
:104A2800000000000000000000000000000000007E
:104A3800000000000000000000000000000000006E
:104A4800000000000000000000000000000000005E
:104A58000000000000F8F8F8F8F8F8F8F8F8F8F8A6
:104A6800F8F0F0E0E0C080C0FCFFFFFFFF7F3F7F71
:104A7800FFFFFFFFFF000000000000000000000033
:104A8800000000000000000000000000000000001E
:104A9800000000000000000000000000000000000E
:104AA800000000000000000000000F1F3F7FFFFF14
:104AB800FFFFFFFFFFFFE7C7C7878F9F9FFFFFFF2E
:104AC800C1C0E0FCFFFFFFFFFFFCFCFCFCFEFEFE9C
:104AD800FCFCF8F8F0E0C0C0000000000000000096
:104AE80000000000000000000000000000000000BE
:104AF80000000000000000000000000000000000AE
:104B08000080C0E0F1FBFFFFFFFFFF7F1F0F0F8753
:104B1800E7FFFFFF1F1F3FF9F8F8F8F8F8F8FDFF67
:104B2800FFFFFFFFFFFFFFFF7F3F0F0701000000B0
:104B3800000000000000000000000000000000006D
:104B4800000000000000000000000000000000005D
:104B5800000000F0FEFFFFFFFFFFFFFFFFFFFFFE6B
:104B68007E3F3F0F1FFFFFFFFCF0E0F1FFFFFFFF5D
:104B7800FFFCF0010101010101010100000000003A
:104B8800000000000000000000000000000000001D
:104B9800000000000000000000000000000000000D
:104BA80000000000000000030303030303030301E4
:104BB80001010100000000000000030F1F3F7F7F7C
:104BC800FFFFFFFF7F7F1F030000000000000000C1
:104BD80000000000000000000000000000000000CD
:104BE800000000000000000000000000E71D3F205A
:104BF8006A19741B741C901C201CAF1CE41C551EE5
:104C080000000000E71D3F202722741B741C901C25
:104C1800201CAF1CE41C551E00000000471F3F204D
:084C2800EA1E061FF61E241F00
:00000001FF
