:100000000C9432030C94251F0C94521F0C945A0329
:100010000C945A030C945A030C94F2090C945A034E
:100020000C945A030C945A030C945A030C945A03DC
:100030000C945A030C945A030C945A030C945A03CC
:100040000C948E1F0C945A030C94561C0C94D91CBF
:100050000C945A030C945A030C945A030C945A03AC
:100060000C945A030C945A030001020304050A0B72
:100070000C0D0E0F111213141516CF01D501DB0153
:10008000E301EC01F601FF0106020E0215021C025B
:100090002402504120506F77657209203D2025537E
:1000A0000D0A00435243204C656E67746809203D79
:1000B0002025530D0A004D6F64656C0909203D2011
:1000C00025530D0A00446174612052617465092052
:1000D0003D2025530D0A0044594E50442F464541BA
:1000E0005455524500434F4E4649470052465F53D0
:1000F000455455500052465F434800454E5F5258A4
:100100004144445200454E5F41410052585F5057B0
:100110005F50302D360054585F41444452005258CD
:100120005F414444525F50322D350052585F414484
:1001300044525F50302D31000D0A002530327800D6
:10014000203078002553092563203D000D0A00204A
:10015000307825303278002553092563203D004F43
:100160004253455256455F54583D253032783A2027
:10017000504F4C535F434E543D2578204152435FCE
:10018000434E543D25780D0A0053544154555309AC
:1001900009203D203078253032782052585F445273
:1001A0003D25782054585F44533D2578204D4158D3
:1001B0005F52543D25782052585F505F4E4F3D2589
:1001C000782054585F46554C4C3D25780D0A003137
:1001D0004D42505300324D425053003235304B4265
:1001E0005053006E524632344C3031006E5246321B
:1001F000344C30312B0044697361626C65640038A3
:100200002062697473003136206269747300504152
:100210005F4D494E0050415F4C4F570050415F4881
:100220004947480050415F4D41580052783A206696
:10023000723D25642C746F3D25642C6C613D2564F2
:100240002C63693D25642C6D743D25642C743D251B
:10025000642C63723D2564282573293A2025730A8E
:100260000053656E742061636B206D736720746F3B
:100270002025640A004D65737361676520616464BD
:1002800072657373656420666F7220746869732089
:100290006E6F64652E0A004D65737361676520613A
:1002A0007661696C61626C65206F6E207069706543
:1002B0002025640A0041636B3A20726563656976A4
:1002C0006564206E6F6E652061636B206D73672EB1
:1002D0000A0041636B3A2072656365697665642044
:1002E0004F4B0A0041636B3A20726563656976651E
:1002F000642061636B2066726F6D2074686520777F
:10030000726F6E672073656E736F720A0041636B64
:100310003A20726563656976652074696D656F75ED
:10032000740A0054783A2066723D25642C746F3D3F
:1003300025642C6C613D25642C6E653D25642C6321
:10034000693D25642C6D743D25642C74793D2564CC
:100350002C63723D25643A2025730A0052656C6156
:1003600079696E67206D657373616765206261638B
:100370006B20746F20676174657761792E0A004D78
:1003800065737361676520746F6F206C6172676558
:100390000A004E6F2072656C6179206E6F64657320
:1003A0002077617320666F756E642E2054727969B0
:1003B0006E6720616761696E20696E20313020733D
:1003C00065636F6E64732E0A0044697363617264BF
:1003D00065642072656C61792025642E2044697300
:1003E00074616E63652069732025640A0055736922
:1003F0006E672072656C61792025642E20446973D4
:1004000074616E63652069732025640A004F70650E
:100410006E2070696E672072656164696E67207016
:100420006970653A2025640A00526164696F206929
:10043000642073746F72656420696E204545505264
:100440004F4D207761733A2025640A005261646938
:100450006F2069642072656365697665643A20255A
:10046000640A0053656E736F72206E6574776F72E5
:100470006B2069732066756C6C2120596F75206143
:100480006C726561647920686176652074686520A6
:100490006D6178696D756D206F662073656E736F21
:1004A0007273210A004E6F20726164696F20696463
:1004B00020666F756E6420696E20454550524F4D21
:1004C000206665746368696E67206F6E652066726A
:1004D0006F6D2073656E736F72206E657420676137
:1004E00074657761790A0052656C61793D25642CE9
:1004F0002064697374616E63653D25640A005374FA
:1005000061727465642025732E0A000000000024C7
:100510000027002A0000000000250028002B000012
:10052000000000230026002900040404040404043D
:100530000402020202020203030303030301020492
:100540000810204080010204081020010204081055
:100550002000000007000201000003040600000064
:10056000000000000000407A10F35A00A0724E18FC
:10057000090010A5D4E80000E87648170000E40B55
:1005800054020000CA9A3B000000E1F5050000801B
:10059000969800000040420F000000A08601000075
:1005A00000102700000000E80300000000640000C5
:1005B0000000000A00000000000100000000002C04
:1005C00076D888DC674F0823DFC1DFAE59E1B1B7C9
:1005D00096E5E3E453C63AE651997696E8E6C28496
:1005E00026EB898C9B62ED407C6FFCEFBC9C9F40AE
:1005F000F2BAA56FA5F490055A2AF75C936B6CF9D3
:10060000676DC11BFCE0E40D47FEF520E6B500D0A8
:10061000ED902E0300943577050080841E080000BD
:10062000204E0A000000C80C333333330F986E128B
:10063000831141EF8D2114893BE65516CFFEE6DB91
:1006400018D1844B381BF77C1D901DA4BBE42420DB
:100650003284725E228100C9F124ECA1E53D2700BD
:10066000CB088C1C11241FBECFEFD8E0DEBFCDBF5E
:1006700011E0A0E0B1E0E2EAF8E402C005900D92DA
:10068000AC3EB107D9F713E0ACEEB1E001C01D926A
:10069000AC32B107E1F716E0C4E6D6E004C0229719
:1006A000FE010E941424C036D107C9F70E947F1FA3
:1006B0000C944F240C940000EF92FF920F931F9321
:1006C000F22FF02E47FD02C0E4E001C0E4E1242F48
:1006D000332727FD309537FF03C0309521953F4FD5
:1006E0004F2D512F0F2FEE2E0E94E1058F2D912FB0
:1006F0001F910F91FF90EF900895FC018827992793
:10070000E89421912032E9F3293010F02E30C8F31B
:100710002B3241F02D3239F4689404C00E94D20388
:10072000820F911D219120532A30C0F31EF4909521
:1007300081959F4F0895DC0101C06D934150504059
:10074000E0F70895FB01DC014150504048F0019072
:100750000D920020C9F701C01D9241505040E0F7B2
:100760000895FB019F01E8944230C4F04532B4F48F
:100770004A3029F497FB1EF4909581959F4F642F82
:1007800077270E94FE23805D8A330CF0895D819378
:10079000CB010097A1F716F45DE251931082C901D5
:1007A0000C9431087AE0979F902D879F802D910DB2
:1007B00011240895AEE0B0E0E0EEF3E00C942624BE
:1007C0008C0177FF02C060E070E8615070407E836A
:1007D0006D831A8309838EE08C83CE010196BA0162
:1007E000A9010E9404042D813E8137FD09C0EF81DB
:1007F000F8852E173F070CF4F901E00FF11F108266
:100800002E96E4E00C944224ABE0B0E0EAE0F4E0A1
:100810000C9418243C012B015A01FC01178216820A
:10082000838181FD03C06FEF7FEFC6C19AE0892EFF
:100830001E010894211C311CF3012381F20123FDC8
:10084000859123FF81912F01882309F4B2C185325C
:1008500039F423FD859123FF81912F01853229F4FD
:1008600090E0B3010E944108E7CF982FFF24EE24C7
:100870009924FFE1FF15D0F09B3269F09C3228F4F7
:10088000903259F0933291F40EC09D3249F090337A
:1008900069F441E024C052E0F52A84E0F82A28C037
:1008A00098E0F92A25C0E0E1FE2A22C0F7FC29C021
:1008B000892F80538A3070F4F6FE05C0989C902CE6
:1008C0001124980E15C0E89CE02C1124E80EF0E2EB
:1008D000FF2A0EC09E3229F4F6FC6BC140E4F42AD4
:1008E00007C09C3619F450E8F52A02C0983649F43E
:1008F000F20123FD959123FF91912F01992309F096
:10090000B8CF892F8554833018F08052833038F463
:1009100044E050E0A40EB51E5FE359830FC0933648
:1009200031F0933779F0933509F056C020C0F501C6
:100930008081898342E050E0A40EB51E610101E090
:1009400010E012C0F501C080D180F6FC03C06FEF4B
:100950007FEF02C0692D70E042E050E0A40EB51EAA
:10096000C6010E9426088C015FE7F52214C0F5013C
:10097000C080D180F6FC03C06FEF7FEF02C0692D0D
:1009800070E042E050E0A40EB51EC6010E941B08B4
:100990008C0150E8F52AF3FE07C01AC080E290E00F
:1009A000B3010E944108EA948E2D90E008171907C0
:1009B000A8F30EC0F601F7FC8591F7FE81916F0157
:1009C00090E0B3010E944108E110EA940150104008
:1009D0000115110579F7EAC0943611F0993669F5D9
:1009E000F7FE08C0F501208131814281538184E006
:1009F00090E00AC0F501808191819C01442737FD78
:100A00004095542F82E090E0A80EB91E9FE6F9228F
:100A100057FF09C050954095309521953F4F4F4F56
:100A20005F4FE0E8FE2ACA01B901A1012AE030E0E7
:100A30000E946D08D82ED21840C0953729F41F2D7A
:100A40001F7E2AE030E01DC01F2D197F9F3661F008
:100A5000903720F4983509F0ACC00FC0903739F0CA
:100A6000983709F0A6C004C028E030E00AC0106141
:100A700014FD146020E130E004C014FD166020E194
:100A800032E017FF08C0F501608171818281938196
:100A900044E050E008C0F50180819181BC0180E014
:100AA00090E042E050E0A40EB51EA1010E946D0846
:100AB000D82ED2188FE7F82EF122F6FE0BC05EEF8B
:100AC000F522D91438F4F4FE07C0F2FC05C08FEE0D
:100AD000F82202C01D2D01C0192DF4FE0DC0FE012B
:100AE000ED0DF11D8081803319F499EEF92208C0D3
:100AF0001F5FF2FE05C003C08F2D867809F01F5FCF
:100B00000F2DF3FC14C0F0FE0FC01E1510F09D2C2D
:100B10000BC09D2C9E0C911A1E2D06C080E290E009
:100B2000B3010E9441081F5F1E15C0F304C01E15CB
:100B300010F4E11A01C0EE2404FF0FC080E390E03E
:100B4000B3010E94410802FF1DC001FD03C088E7F8
:100B500090E00EC088E590E00BC0802F867891F081
:100B600001FF02C08BE201C080E2F7FC8DE290E061
:100B7000B3010E94410806C080E390E0B3010E94E7
:100B800041089A94D914C0F3DA94F101ED0DF11DE6
:100B9000808190E0B3010E944108DD20A9F706C0E2
:100BA00080E290E0B3010E944108EA94EE20C1F790
:100BB00043CEF30166817781CB012B96E2E10C9461
:100BC0003424A9E0B0E0E7EEF5E00C941C246A01BF
:100BD000122FA02EBE2C2BE3201718F42CE3922EFC
:100BE00002C0902E9394AE014F5F5F4F27E0092D16
:100BF0000E944307BC018981E82EFF24C701897048
:100C00009070019711F4ADE209C0B1FE02C0ABE2F1
:100C100005C0B0FC02C0A0E001C0A0E2E3FE3BC002
:100C2000AA2311F423E001C024E0211710F020E0F2
:100C300002C0121B212FEB2CB4FE02C0322F0AC0BF
:100C4000F601322F80E202C0819331503323E1F765
:100C5000C20ED11CAA2319F0F601A1936F01F6016F
:100C60003196E2FE05C09EE4D6019C9381E404C067
:100C70009EE6D6019C9381E611968C9391833296E1
:100C8000DF01832F90E202C09D9381508823E1F71A
:100C9000E30FF11D40C0E2FE42C0AA2311F423E09D
:100CA00001C024E0211710F020E002C0121B212F08
:100CB000EB2CB4FE02C0922F0AC0F601922F80E204
:100CC00002C0819391509923E1F7C20ED11CAA234F
:100CD00019F0F601A1936F01F6013196E2FE08C00A
:100CE00089E4D6018C938EE411968C9386E407C038
:100CF00089E6D6018C938EE611968C9386E68183E5
:100D00003296DF01892F20E202C02D938150882383
:100D1000E1F7E90FF11D10822EEF3FEFAFC016167D
:100D200017061CF041E050E003C0AB014F5F5F4F7E
:100D3000AA2019F480E090E003C08A2D90E001968B
:100D400020E030E0AA2311F021E030E0240F351F2D
:100D5000280F391F812F90E02817390714F020E061
:100D600002C0121B212F4B2D50E0CA0180719070E0
:100D7000B4FC0DC0B3FC0BC0F601322F40E202C040
:100D8000419331503323E1F7C20ED11C01C0322F01
:100D9000AA2319F0F601A1936F01892B11F0132FEB
:100DA0000AC0F601132F80E302C081931150112372
:100DB000E1F7C30ED11C092D060FBA8090E1892EF0
:100DC000912C8E209F20E4FE04C0F1E3BF1609F4AD
:100DD0000150101614F001E003C0093008F008E0DB
:100DE0009B0177FF02C020E030E0CB010196821B1F
:100DF000930BFE013196E80FF91F8EE2F82E3B01AE
:100E0000601A71088A2D90E044275527481B590B1A
:100E10008FEF2F3F380719F4D601FD926D0162174D
:100E200073072CF06216730614F4808101C080E30E
:100E30002150304031962417350724F0D6018D9388
:100E40006D01E6CF2617370749F4B5E3BB1528F047
:100E5000BB1621F48114910409F481E3F601819316
:100E6000D601812F90E202C09C9381501196882375
:100E7000D9F7E10FF11D108220E030E0C901299679
:100E8000EEE00C943824283008F027E03327DA010C
:100E9000990F311D87FD916000966105710539F448
:100EA00032602E5F3D9330E32A95E1F708959F3F2E
:100EB00030F080387105610509F03C5F3C5F3D937F
:100EC000913008F08068911DDF93CF931F930F93AB
:100ED000FF92EF92192F987F9695E92F9695969508
:100EE000E90FFF27E154FA4F99273327EE24FF2417
:100EF000A701E70105900894079428F4360FE71E30
:100F0000F81E491F511D660F771F881F991F0694F1
:100F1000A1F70590079428F4E70EF81E491F561F05
:100F2000C11D770F881F991F661F0694A1F70590B2
:100F3000079428F4F80E491F561FC71FD11D880FAC
:100F4000991F661F771F0694A1F70590079420F458
:100F5000490F561FC71FD81F990F661F771F881F7D
:100F60000694A9F784911095177041F0D695C7950E
:100F700057954795F794E7941A95C1F7E5E6F5E09C
:100F800068941590159135916591959105907FE242
:100F90007395E118F10A430B560BC90BD009C0F742
:100FA000E10CF11E431F561FC91FD01D7EF4703384
:100FB00011F48A95E6CFE894015030F0080F0AF456
:100FC0000027021708F4202F2395022F7A3328F0E8
:100FD00079E37D932A95E9F710C07D932A9589F6E8
:100FE000069497956795379517951794E118F10A28
:100FF000430B560BC90BD00998F023957E9173953E
:101000007A3308F070E37C932013B8F77E91706117
:101010007D9330F0839571E37D9370E32A95E1F73A
:101020001124EF90FF900F911F91CF91DF9199279D
:1010300087FD90950895FC01059061507040011066
:10104000D8F7809590958E0F9F1F0895FC016150F1
:10105000704001900110D8F7809590958E0F9F1FDA
:101060000895DC01FC01672F71917723E1F7329736
:1010700004C07C916D9370836291AE17BF07C8F373
:1010800008950F931F93CF93DF938C01EB018B8116
:1010900081FF1BC082FF0DC02E813F818C819D810D
:1010A0002817390764F4E881F9810193F983E8830B
:1010B00006C0E885F985802F0995892B31F48E814A
:1010C0009F8101969F838E8302C00FEF1FEFC8019F
:1010D000DF91CF911F910F910895FA01AA2728302F
:1010E00051F1203181F1E8946F936E7F6E5F7F4FF5
:1010F0008F4F9F4FAF4FB1E03ED0B4E03CD0670F71
:10110000781F891F9A1FA11D680F791F8A1F911DC3
:10111000A11D6A0F711D811D911DA11D20D009F413
:1011200068943F912AE0269F11243019305D319355
:10113000DEF6CF010895462F4770405D4193B3E03E
:101140000FD0C9F7F6CF462F4F70405D4A3318F0E5
:10115000495D31FD4052419302D0A9F7EACFB4E096
:10116000A6959795879577956795BA95C9F700974E
:101170006105710508959B01AC010A2E06945795EF
:10118000479537952795BA95C9F7620F731F841F46
:10119000951FA01D08958CEE91E069E04AE00E9441
:1011A000A81988E692E00E94DA0908958F929F922A
:1011B000AF92BF92CF92DF92EF92FF920F931F9365
:1011C00087E592E00E94E71A4B015C01A5019401BA
:1011D0000E94B923882339F082E892E060E271E04E
:1011E0000E94121F31C0C501B40120917B023091D1
:1011F0007C0240917D0250917E020E94032288234E
:1012000019F180927B0290927C02A0927D02B092B2
:101210007E028CEE91E06091DA0140E021E08501F0
:10122000740131E0C32ED12C0E94351782E892E080
:1012300061E471E00E94181E82E892E0B501A40109
:1012400022E030E00E94FF1E1F910F91FF90EF906F
:10125000DF90CF90BF90AF909F908F9008958F9226
:101260009F92AF92BF92CF92DF92EF92FF920F9335
:101270001F9387E592E00E94D81A4B015C01A501FB
:1012800094010E94B923882339F082E892E065E452
:1012900071E00E94121F29C0C501B401209177029C
:1012A000309178024091790250917A020E94032293
:1012B000882319F18092770290927802A0927902A5
:1012C000B0927A028CEE91E06091DA0141E020E088
:1012D0008501740151E0C52ED12C0E94351782E89A
:1012E00092E069E671E00E94181E82E892E0B50182
:1012F000A40122E030E00E94FF1E1F910F91FF9099
:10130000EF90DF90CF90BF90AF909F908F90089517
:1013100082E892E06DE671E00E94121F8091600207
:1013200090916102019719F020ED37E002C028EE9C
:1013300033E0B901882777FD8095982F0E944F20D0
:101340000E942F090E94D6080895EF92FF920F93F2
:101350001F9382E892E065E771E00E94121F87E523
:1013600092E063E040E050E00E94F61A6CEEE62E58
:1013700061E0F62EC7016091D90143E050E02CE412
:1013800001E010E00E94AE18C7016FE871E046E985
:1013900051E00E949117C70160E047E00E94F016FB
:1013A000C70161E046E00E94F0161F910F91FF9087
:1013B000EF900895FC019093800280937F02128247
:1013C00013821482158280E090E0A0E8BFE3868358
:1013D0009783A087B1871486138684E690E096876A
:1013E000858708951F920F920FB60F9211248F9345
:1013F000EF93FF93F894A89584B7877F84BFE0E6C6
:10140000F0E080818861808310827894E0917F028F
:10141000F091800281E08287FF91EF918F910F9090
:101420000FBE0F901F901895882319F48CB5806219
:1014300002C08CB58F7D8CBD08959CB5937F982B91
:101440009CBD08952CB5382F33702C7F322B3CBDBA
:101450002DB590E0959587959595879581702E7F10
:10146000822B8DBD08958AE061E00E94F6208AE01B
:1014700061E00E94B7208CB580618CBD8CB5806422
:101480008CBD8DE061E00E94B7208BE061E00E949E
:10149000B7200895FC01608341831282138280E2A9
:1014A000848315821682108611861286138614860E
:1014B0001586168617860895FF920F931F938C0149
:1014C000F62E81E00E94140A80E00E941D0A80E04E
:1014D0000E94220AF80181816F2D0E94F6201F913F
:1014E0000F91FF900895CF93DF93EC0160E070E0DF
:1014F0000E945C0A80E58EBD0DB407FEFDCF8EB55F
:1015000083E78EBD0DB407FEFDCF8EB5CE0161E041
:1015100070E00E945C0ADF91CF9108951F93CF93F2
:10152000DF93EC0160E070E00E945C0A80E68EBD13
:101530000DB407FEFDCF8EB58FEF8EBD0DB407FE47
:10154000FDCF1EB5CE0161E070E00E945C0A812FE4
:10155000DF91CF911F9108951F93CF93DF93EC01FB
:1015600060E070E00E945C0A8FEF8EBD0DB407FE54
:10157000FDCF1EB5CE0161E070E00E945C0A812FB4
:10158000DF91CF911F9108951F93CF93DF93EC01CB
:1015900060E070E00E945C0A81EE8EBD0DB407FE33
:1015A000FDCF1EB5CE0161E070E00E945C0A812F84
:1015B000DF91CF911F9108951F93CF93DF93EC019B
:1015C00060E070E00E945C0A82EE8EBD0DB407FE02
:1015D000FDCF1EB5CE0161E070E00E945C0A812F54
:1015E000DF91CF911F9108950F931F938C01FC0100
:1015F000808160E00E94F620C8010E94C40AC801F0
:101600000E94DC0A1F910F910895EF92FF920F93B1
:101610001F93CF93DF93EC01F62EE72E9C81142FBE
:10162000941708F4192F8E81882311F000E002C06E
:10163000092F011B888160E00E94F620CE0160E046
:1016400070E00E945C0A81E68EBD0DB407FEFDCFFE
:101650008F2D9E2D9C01F901FEB49FEF07C09EBD0A
:101660000DB407FEFDCF8EB5819311501123B9F74C
:1016700007C08EBD0DB407FEFDCF9EB5015001C061
:101680008FEF0023B1F7CE0161E070E00E945C0AA9
:10169000888161E00E94F6208F2DDF91CF911F910C
:1016A0000F91FF90EF900895DF92EF92FF920F93CA
:1016B0001F93CF93DF93EC01E62ED72EF22E9C8161
:1016C000142F941708F4192F8E81882311F000E04D
:1016D00002C0092F011BCE0160E070E00E945C0A8D
:1016E000FEBC0DB407FEFDCF8E2D9D2D9C01F90192
:1016F000FEB408C080818EBD0DB407FEFDCF3196CB
:101700008EB511501123B1F706C01EBC0DB407FEF3
:10171000FDCF8EB501500023C1F7CE0161E070E02E
:101720000E945C0A8F2DDF91CF911F910F91FF9046
:10173000EF90DF9008950F931F93CF93DF93EC0109
:10174000162F042F60E070E00E945C0A1F71106287
:101750001EBD0DB407FEFDCF1EB50EBD0DB407FEB8
:10176000FDCF8EB5CE0161E070E00E945C0A812F52
:10177000DF91CF911F910F910895262F4F702295E1
:10178000207F242B64E0422F0E949B0B0895662348
:1017900019F061E04FE302C061E040E00E949B0B62
:1017A0000895CF92DF92EF92FF920F931F938B01D8
:1017B0007A01690167E040E70E949B0B90E09C0181
:1017C000E5E036952795EA95E1F72170F801208349
:1017D00074E0969587957A95E1F7282F2170F701A7
:1017E000208396958795969587958170F6018083DD
:1017F0001F910F91FF90EF90DF90CF900895DF92AF
:10180000EF92FF920F931F93CF93DF938C017B0195
:101810000E94AC0AC82FD0E0CE01A6E0969587952D
:10182000AA95E1F7DD24D394D82280FF15C0E114F6
:10183000F10431F0CE01959587958770F70180838B
:10184000C80167E040E40E949B0BC5FF05C0C801CA
:1018500067E040E20E949B0B8D2DDF91CF911F919D
:101860000F91FF90EF90DF90089560E070E00E948C
:10187000FF0B0895462F603808F04FE765E00E949F
:101880009B0B0895EF92FF920F931F93CF93DF93DB
:101890007C01162FEA01022F60E070E00E945C0AD2
:1018A0001F7110621EBD0DB407FEFDCF1EB508C02E
:1018B00088818EBD0DB407FEFDCF21968EB50150F7
:1018C0000023B1F7C70161E070E00E945C0A812F3C
:1018D000DF91CF911F910F91FF90EF900895EF92BC
:1018E000FF920F931F93DF93CF93CDB7DEB7289767
:1018F0000FB6F894DEBF0FBECDBF7C0109831A83FB
:101900002B833C834D835E836F8378878E010F5FCB
:101910001F4F6AE0A80125E00E94420CC70160E168
:10192000A80125E00E94420CF7014481413208F0F1
:1019300040E2C70161E10E949B0B28960FB6F89424
:10194000DEBF0FBECDBFCF91DF911F910F91FF90F2
:10195000EF9008951F93CF93DF93EC01162F60E073
:1019600070E00E945C0A1F711EBD0DB407FEFDCF22
:101970008EB58FEF8EBD0DB407FEFDCF1EB5CE0127
:1019800061E070E00E945C0A812FDF91CF911F918E
:10199000089564E00E94AA0C08950E94C90C282FA3
:1019A00030E02F7030704AEF50E0B901649F900131
:1019B000659F300D749F300D112482958F7090E0DB
:1019C0000196A901489F9001499F300D589F300D05
:1019D0001124C90108950F931F93CF93DF938C01B6
:1019E000EB0160E00E94AA0C482F437F209729F06A
:1019F000219711F4486001C04C60C80160E00E946A
:101A00009B0BDF91CF911F910F910895FF920F9340
:101A10001F93CF93DF93EC018B0166E00E94AA0C29
:101A20001A82B7EDFB2EF8220230110511F480E284
:101A300006C00130110529F481E08A8388E0F82A84
:101A400001C01A82CE0166E04F2D0E949B0BCE0191
:101A500066E00E94AA0C8F1511F481E002C01A8280
:101A600080E0DF91CF911F910F91FF9008950F9328
:101A70001F93CF93DF938C01EB0166E00E94AA0CC9
:101A8000482F497FC330D10571F0C230D10511F420
:101A900044600AC0C130D10511F4426005C02097EE
:101AA00019F0249709F44660C80166E00E949B0B78
:101AB000DF91CF911F910F910895CF93DF93EC01A8
:101AC0006DE10E94AA0C482F4460CE016DE10E9496
:101AD0009B0BCE016DE10E94AA0C882369F4CE0114
:101AE0000E94730ACE016DE10E94AA0C482F446047
:101AF000CE016DE10E949B0BCE016CE10E94AA0C0D
:101B0000482F4F63CE016CE10E949B0B81E08E83D6
:101B1000DF91CF910895FF920F931F938C01F62EC2
:101B200062E00E94AA0CE8E6F0E0EF0DF11DE491FE
:101B300041E050E002C0440F551FEA95E2F740959E
:101B40004823C80162E00E949B0B1F910F91FF90F8
:101B50000895BF92CF92DF92EF92FF920F931F935F
:101B6000DF93CF93CDB7DEB728970FB6F894DEBFDB
:101B70000FBECDBF6C01B62EE982FA820B831C83A7
:101B80002D833E834F835887662389F4F601E086D0
:101B90008A8181878B8182878C8183878D818487ED
:101BA0008E8185878F8186878885878707C0F6E045
:101BB000F61708F43DC081E0681761F4EB2DF0E002
:101BC000E259FF4FE491C6016E2FAE014F5F5F4FA8
:101BD00025E00BC0E62FF0E0E259FF4FE491C6018B
:101BE0006E2FAE014F5F5F4F21E00E94420C0B2D24
:101BF00010E0F801EC58FF4FE491C6016E2FF6019A
:101C000044810E949B0BC60162E00E94AA0C085905
:101C10001F4FF801649121E030E002C0220F331F12
:101C20006A95E2F7482F422BC60162E00E949B0BA7
:101C300028960FB6F894DEBF0FBECDBFCF91DF91CF
:101C40001F910F91FF90EF90DF90CF90BF9008957C
:101C50000F931F938C010E94050BC80167E10E943E
:101C6000AA0C81701F910F910895CF93DF93EC011F
:101C700060E00E94AA0C81FD0EC0CE0160E00E94CF
:101C8000AA0C482F4260CE0160E00E949B0B80E9C5
:101C900091E00E940A20DF91CF910895EF92FF9288
:101CA0000F931F93CF93DF93EC017B01042F122F2F
:101CB00060E00E94AA0C482F4E7FCE0160E00E9497
:101CC0009B0BCE010E94350E112311F420EA01C0B6
:101CD00020EBCE01B701402F0E94540B888161E0B8
:101CE0000E94F6208AE090E00E940A20888160E04D
:101CF0000E94F620DF91CF911F910F91FF90EF90FE
:101D00000895CF93DF93EC0160E00E94AA0C482F66
:101D10004160CE0160E00E949B0BCE010E94350E17
:101D2000CE0167E040E70E949B0B88859985892B4F
:101D30009A85892B9B85892B9C85892B9D85892B51
:101D40009E85892B9F85892B41F0AE01485F5F4FAF
:101D5000CE016AE025E00E94420C888161E00E9489
:101D6000F620DF91CF910895CF93DF93EC01888126
:101D700061E00E94B720898161E00E94B7200E9443
:101D8000330A888160E00E94F620CE0161E070E0B5
:101D90000E945C0A65E070E080E090E00E944F20C5
:101DA000CE0164E04FE50E949B0BCE0163E070E042
:101DB0000E94370DCE0162E070E00E94060D88237C
:101DC00011F081E08B83CE0160E070E00E94060D8F
:101DD000CE0162E070E00E94EB0CCE016CE140E0CD
:101DE0000E949B0BCE0167E040E70E949B0BCE0157
:101DF0006CE40E943A0CCE010E94DC0ACE010E94E3
:101E0000C40ADF91CF910895EF92FF920F931F9331
:101E1000CF93DF937C01162FEA01022F60E070E080
:101E20000E945C0A1F711EBD0DB407FEFDCF1EB5DA
:101E30009FEF07C09EBD0DB407FEFDCF8EB5899301
:101E400001500023B9F7C70161E070E00E945C0A0D
:101E5000812FDF91CF911F910F91FF90EF90089507
:101E60006F927F928F929F92AF92BF92CF92DF92AA
:101E7000EF92FF920F931F93DF93CF9300D00F92B7
:101E8000CDB7DEB78C010E944E0E0E94E41F4B01BD
:101E90005C01C8010E94CD0C3E010894611C711CBC
:101EA0006C01EE24FF24C80168E0A30121E00E9438
:101EB000040F807321F50E94E41F681979098A09CB
:101EC0009B096C157D058E059F05C8F4ECCFC801F4
:101ED0000E948E0AF80187838F2D0F900F900F902C
:101EE000CF91DF911F910F91FF90EF90DF90CF90F6
:101EF000BF90AF909F908F907F906F9008959801C2
:101F00002B5F3F4FC801BE016E5F7F4FAE014D5F3B
:101F10005F4F0E94D10BFA80F80185818823E1F29E
:101F2000D6CFCF92DF92EF92FF920F931F93DF9362
:101F3000CF93CDB7DEB7CC52D1400FB6F894DEBF09
:101F40000FBECDBFC75CDE4FC880D980C953D1401A
:101F5000C95CDE4FE881F981C753D140828988236B
:101F600031F482E892E06AE971E00E94181E8E0165
:101F7000055C1E4F7E010894E11CF11CC7016CE258
:101F800071E0A60198010E94DA03C95CDE4FE88186
:101F9000F981C753D1408289882359F4C7016CE382
:101FA00070E0A60198010E94DA038AE08CAF1DAEB2
:101FB00007C0C7016BE271E0A60198010E94DA0335
:101FC00082E892E0BE016F5F7F4F0E94181EC45DE1
:101FD000DE4F0FB6F894DEBF0FBECDBFCF91DF91BD
:101FE0001F910F91FF90EF90DF90CF900895DF93B6
:101FF000CF93CDB7DEB72EA11D82293198F430E002
:10200000E9E1F0E0E21BF30B295F3F4F85E090E050
:102010008C0F9D1F280F391FC90160E070E0AF01D0
:102020000E949B03FE01359690E058E1BE016A5D77
:102030007F4F308128E0832F8927482F417080FD12
:1020400095279695413009F49068215011F0369506
:10205000F2CF3196E617F70761F7892FCF91DF911D
:1020600008951F93CF93DF93EC011D892DB73EB7E1
:10207000225230400FB6F8943EBF0FBE2DBF2F5FE7
:102080003F4FD901FC01759681E201900D9281507C
:10209000E1F7F90161A3CE010E94F70F982F8E8915
:1020A00087702DB73EB72E5D3F4F0FB6F8943EBFF9
:1020B0000FBE2DBF813011F082E003C080E0191304
:1020C00081E0DF91CF911F9108959F92AF92BF92CF
:1020D000CF92DF92EF92FF920F931F93CF93DF93F4
:1020E000EC01F82EED2E0E948E0AC82EBE016B5E0A
:1020F0007F4FCE014C2D0E94280E6C2D6750CE01D3
:102100000E943110B82E9924882309F091C0992497
:1021100093948A8D82958F70843021F48B8D8A30D0
:1021200009F486C06AE070E080E090E00E944F20F1
:102130008F2D9E2D0E94F40A988D92959F70898D07
:102140008295807F892B282F30E040E050E060E0CE
:1021500070E080E090E0022FF1E0313C08F4F0E024
:10216000E1E04C3A08F4E0E02BEAA22EAF0EE0608A
:10217000F1E05E3C08F4F0E09DECD92EDE0EE1E0EB
:10218000ADECDA1608F0E0E0FE2BA1E06C3A08F4C2
:10219000A0E0BF2FB555E1E0BB3A08F0E0E0AE2B80
:1021A000F1E0772309F4F0E0E1E0882309F4E0E0CE
:1021B0008F2D9E2D10EC2A2D3D2D4B2F5A2F6F2F3A
:1021C0007E2F0E946F0CBE016E5E7F4F8F2D9E2D65
:1021D00041E020E00E94300F8F2D9E2D60E00E9494
:1021E0008B0D8F2D9E2D0E94810E00D000D000D02F
:1021F000EDB7FEB73196ADB7BEB71296DC93CE936E
:10220000119781E692E093838283988D92959F70D7
:10221000898D8295807F892B848315820E94910FFE
:102220008DB79EB706960FB6F8949EBF0FBE8DBFB2
:10223000FE01EC0DF11D158A8E8982958F709F89A4
:10224000792F7295707F782B92959F70888D682F6B
:102250006295607F692B82958F70998D592F529569
:10226000507F582B92959F708A8D482F4295407FC2
:10227000492BF82EF2948FE0F8220B8D1D89BB209C
:1022800019F424EA31E008C091E0B91619F027EA00
:1022900031E002C02AEA31E0ADB7BEB756970FB6BB
:1022A000F894BEBF0FBEADBFEDB7FEB73196129624
:1022B000DC93CE9311978BE292E0938382837483B5
:1022C0001582668317825087118642871386F486AB
:1022D000158606871786108B118A338B228B6C9696
:1022E000D58BC48B0E94910F8DB79EB746960FB6C3
:1022F000F8949EBF0FBE8DBF892DDF91CF911F91A6
:102300000F91FF90EF90DF90CF90BF90AF909F9094
:1023100008955F926F927F928F929F92AF92BF9239
:10232000CF92DF92EF92FF920F931F93DF93CF93A1
:102330000F92CDB7DEB77C01562EDC0152969C91F0
:10234000292F2295207F8E898F70822B8E8B9295DC
:102350009F708F89807F892B8F8BEDB7FEB7B297E7
:102360000FB6F894FEBF0FBEEDBF2DB73EB72F5F7F
:102370003F4FD901FE01739681E201900D92815089
:10238000E1F7ECA9D9019196EC93C7010E94F70FF0
:102390008B8B2DB73EB72E5D3F4F0FB6F8943EBFE7
:1023A0000FBE2DBFADB7BEB756970FB6F894BEBFE0
:1023B0000FBEADBFEDB7FEB731961296FC92EE920E
:1023C000119723E233E0338322832C8922952F70E7
:1023D0009D899295907F922B948315822D892295C9
:1023E0002F709E899295907F922B968317822E89CB
:1023F00022952F709F899295907F922B90871186BE
:10240000528613862F8922952F70988D9295907FF2
:10241000922B94871586988D92959F709687178634
:10242000998D908B118A828B138ACE014A96958B57
:10243000848B0E94910F888D82958F70EDB7FEB7C7
:1024400076960FB6F894FEBF0FBEEDBF843011F044
:10245000DD2406C0DD24898D893011F4DD24D39478
:102460009E2C8F2CC7010E94F40A30E040E050E01F
:1024700060E070E080E090E0052DF1E0313C08F490
:10248000F0E0E1E04C3A08F4E0E0ABEABA2EBF0E2F
:10249000E060F1E05E3C08F4F0E04DECC42ECE0EBE
:1024A000E1E0ADECCA1608F0E0E0FE2BA1E06C3AEA
:1024B00008F4A0E0BF2FB555E1E0BB3A08F0E0E03A
:1024C000AE2BF1E0772309F4F0E0E1E0882309F492
:1024D000E0E0892D982D10EC2B2D3C2D4B2F5A2F01
:1024E0006F2F7E2F0E946F0C4CA95DA9495F5F4F33
:1024F0004132510510F040E250E0892D982DBE0187
:102500006D5E7F4F2D2D0E94300F892D982D60E03C
:102510000E948B0D892D982D0E94810EDD2011F0D7
:1025200001E070C00E94D61F5B016C0101E010E069
:102530003DE0632E33E0732E10C000D000D0EDB725
:10254000FEB7F282E182748263820E94910F11E0F1
:1025500000E00F900F900F900F90892D982D0E9402
:10256000350C882379F4112309F04CC00E94D61F42
:102570006A197B098C099D096333710581059105F1
:1025800060F3DBCF1123F1F5892D982D0E948E0A7F
:10259000813019F5892D982DBE016F5F7F4F41E085
:1025A0000E94280E8981581659F000D000D0ADB78E
:1025B000BEB71296FC92EE92119784EE92E017C08D
:1025C00000D000D0EDB7FEB7F282E18282ED92E05A
:1025D000948383830E94910F11C000D000D0ADB7C7
:1025E000BEB71296FC92EE92119785EB92E014968C
:1025F0009C938E9313970E94910F00E00F900F9081
:102600000F900F90802F0F90CF91DF911F910F911E
:10261000FF90EF90DF90CF90BF90AF909F908F9002
:102620007F906F905F9008956F927F928F92AF929C
:10263000CF92DF92EF92FF920F931F93DF93CF938E
:10264000CDB7DEB73C011A2D882D8170880F880F19
:10265000880F8870962F9295907F8160982BF30158
:10266000968B842F8295807F62956F70862B878BE7
:1026700042954F70808D807F842B808F922F929512
:10268000907F818D8F70892B818F0295007F22959D
:102690002F70202B228FE38EEA2CFF24C3014C964F
:1026A000B601A7010E94A203193178F4E9E1F0E034
:1026B000EE19FF099701245E3F4F260D371DC90112
:1026C00060E070E0AF010E949B03CF91DF911F910A
:1026D0000F91FF90EF90DF90CF90AF908F907F9011
:1026E0006F9008952F923F924F925F926F927F92D8
:1026F0008F92AF92BF92CF92DF92EF92FF920F93A1
:102700001F93CF93DF93EC018A89882309F463C177
:10271000188A823009F457C0282F30E040E050E09A
:1027200060E070E080E090E0E22E01E0313C08F4EF
:1027300000E011E04C3A08F410E005551060E1E0CB
:102740005E3C08F4E0E01353F1E01D3C08F0F0E0DB
:10275000EF2BF1E06C3A08F4F0E0BE2FB555E1E064
:10276000BB3A08F0E0E0FE2BA1E0772309F4A0E0FB
:10277000E1E0882309F4E0E0CE0161E020ECF22EF4
:102780002B2F3F2F4A2F5E2F0E94A90D00D000D083
:1027900000D0EDB7FEB73196ADB7BEB71296DC9359
:1027A000CE9311978DE094E0938382838A8984830A
:1027B00015820E94910FEDB7FEB736960FB6F894CA
:1027C000FEBF0FBEEDBF8FEF8B8BBC889CE1492E07
:1027D000512C4C0E5D1E85E1682E712C6C0E7D1EF9
:1027E00002E9202E03E0302EE2C0CE016A894FEFCD
:1027F0002FEF04E019E0E12EBDEACB2EB1E0DB2E95
:10280000AA2488240E9414138DB79EB783970FB60D
:10281000F8949EBF0FBE8DBF2DB73EB72F5F3F4FC1
:10282000D901F30181E201900D928150E1F7D901C4
:1028300092961C921E929197CE016FEF0E94891181
:10284000EDB7FEB7B3960FB6F894FEBF0FBEEDBF5F
:102850000E94D61F6B017C0187C0CE010E94BB1570
:10286000882309F481C08A8D82958F70843009F0A5
:102870007BC08B8D8A3009F077C00F89802F8295BD
:102880008F70988D9295907F982B8A89981709F070
:102890006BC0C2010E947D03182F282F30E08B8966
:1028A00090E0019728173907BCF51F5F1B8B11506B
:1028B0008E8982958F700295007F082B0C8B8DB7C7
:1028C0009EB708970FB6F8949EBF0FBE8DBFEDB7A9
:1028D000FEB73196ADB7BEB71296DC93CE93119783
:1028E0008DEE93E0938382839E8992959F708F896A
:1028F0008295807F892B84831582378326830E946B
:10290000910FADB7BEB718960FB6F894BEBF0FBE05
:10291000ADBF112349F534C0EDB7FEB738970FB6F8
:10292000F894FEBF0FBEEDBF3196ADB7BEB712969D
:10293000DC93CE93119789EC93E0938382839E89F5
:1029400092959F708F898295807F892B84831582D1
:10295000378326830E94910FADB7BEB718960FB686
:10296000F894BEBF0FBEADBF0E94D61F6C197D0983
:102970008E099F09685873418040904008F46DCFDC
:102980008B898F3FA1F400D000D0EDB7FEB7D28382
:10299000C183348223820E94910F0F900F900F9079
:1029A0000F9060E177E280E090E00E944F208B89F9
:1029B0008F3F09F41ACF4C894B1569F081E892E0FA
:1029C00061E070E00E94B91981E892E062E070E095
:1029D0004B890E94B919DF91CF911F910F91FF9000
:1029E000EF90DF90CF90BF90AF908F907F906F90DF
:1029F0005F904F903F902F900895FF920F931F93F9
:102A0000DF93CF93CDB7DEB78C0100D000D0EDB708
:102A1000FEB7928381838CE593E0948383830E9445
:102A2000910F8DB79EB74F970FB6F8949EBF0FBE0C
:102A30008DBF2DB73EB72F5F3F4FD901FE013896AE
:102A400081E201900D928150E1F789A59AA5F901E3
:102A500092A381A3C801F80164890E948911F82E0C
:102A6000882311F0FF24F3948DB79EB783960FB699
:102A7000F8949EBF0FBE8DBFFF2079F4F8018289C4
:102A8000882359F08089853118F0C8010E9472139B
:102A9000F80180898F5F808B02C0F801108A8F2D2A
:102AA000CF91DF911F910F91FF9008950F931F9386
:102AB000CF93DF93EC01898D82958F709A8D9295DB
:102AC000907F982BFE01E25BFF4F292F2295207FFC
:102AD00080818F70822B8083FE01E15BFF4F929596
:102AE0009F708081807F892B80838B8DC05BDF4FBF
:102AF0008883C055D0408E010F5A1F4FBE01645EBF
:102B00007F4FC80149E150E00E94A203D8010D9017
:102B10000020E9F71197A01BB10B2DB73EB7235248
:102B200030400FB6F8943EBF0FBE2DBF4DB75EB715
:102B30004F5F5F4F9A01BE01665B7F4F81E2FB01F1
:102B40000190BF01F90101929F018150C1F7FA0183
:102B5000B2A3A1A3CE010E94FD142DB73EB72D5DF7
:102B60003F4F0FB6F8943EBF0FBE2DBFDF91CF9100
:102B70001F910F9108950F931F93DF93CF930F929F
:102B8000CDB7DEB78C01BE016F5F7F4F0E94FF0B98
:102B9000882309F45DC000D000D000D0EDB7FEB7A7
:102BA0003196ADB7BEB712961C930E93119787E975
:102BB00092E0938382838981848315820E94910F9E
:102BC000EDB7FEB736960FB6F894FEBF0FBEEDBF59
:102BD00089818730E8F5C8010E9465108823C1F11A
:102BE000D80157968C91579782958F7058969C91E3
:102BF00058979295907F982B52968C91981741F503
:102C000000D000D0EDB7FEB71283018385E792E0D4
:102C1000948383830E94910FD80156969C91569776
:102C200092959F7057968C9157978295807F892BAC
:102C30000F900F900F900F9049F45A968C918295B7
:102C40008F70813019F4C8010E94561581E001C0CF
:102C500080E00F90CF91DF911F910F9108956F92B7
:102C60007F928F92AF92CF92DF92EF920F931F934A
:102C7000DF93CF93CDB7DEB73C011A2D1A3148F55B
:102C80000E9414132DB73EB7235230400FB6F8946C
:102C90003EBF0FBE2DBFEDB7FEB731969F01A3011A
:102CA0004B5E5F4F81E2DA010D90AD01D9010D92CB
:102CB0009D018150C1F711A312A2C3010E94FD140E
:102CC000EDB7FEB7B3960FB6F894FEBF0FBEEDBFDB
:102CD00015C000D000D0ADB7BEB712969C938E93AE
:102CE00011978FE793E014969C938E9313970E940D
:102CF000910F80E00F900F900F900F90CF91DF9188
:102D00001F910F91EF90DF90CF90AF908F907F90B9
:102D10006F9008956F927F928F929F92AF92BF9221
:102D2000CF92DF92EF92FF920F931F93CF93DF9397
:102D3000EC01962EF42EB22E1E2D602E7724CE019D
:102D40006A89492D2F2D0B2DE12EFDEACF2EF1E0C2
:102D5000DF2EAA2488240E942F1600E026C02A8D88
:102D6000822F82958F7090E086159705F1F48B8DF8
:102D70008117D9F4898D82958F702295207F282B19
:102D80002F1599F49E01245E3F4FC901DF91CF9129
:102D90001F910F91FF90EF90DF90CF90BF90AF9079
:102DA0009F908F907F906F900895CE010E94BB15E9
:102DB0008823A9F662E370E080E090E00E944F2053
:102DC0000F5F043691F7BBCFEF920F93E62E60E0D2
:102DD0004FEF24E004E00E948A160F91EF900895CF
:102DE0008F92AF92CF92DF92EF920F93FC01262F3A
:102DF000E42E628940E000E05EEAC52E51E0D52E67
:102E00003FE0A32E88240E942F160F91EF90DF90B1
:102E1000CF90AF908F9008958F92AF92BF92CF9244
:102E2000DF92EF920F931F935C01362F542FE22E07
:102E3000C02EE02FF12FDF010D900020E9F7119750
:102E4000AE1BBF0BF5016289432F252F01E0D12E68
:102E5000AA2E88240E942F161F910F91EF90DF90C9
:102E6000CF90BF90AF908F9008958F929F92AF9226
:102E7000BF92CF92DF92EF92FF920F931F935C016C
:102E8000D62E942E822EC801B7012C2D85010A5C06
:102E90001F4F42E00E945C038C01C5016D2D492D3E
:102EA000282D0E940C171F910F91FF90EF90DF903B
:102EB000CF90BF90AF909F908F9008958F92AF92D8
:102EC000CF92DF92EF920F939C01E62EC42EE42F57
:102ED000F52FDF010D900020E9F71197AE1BBF0B16
:102EE000F901628940E02FEF04E0D52EAA2E882454
:102EF0000E942F160F91EF90DF90CF90AF908F90A0
:102F00000895AB016115710519F06FE00E945E171D
:102F10000895AB016115710519F06EE00E945E170E
:102F20000895EF92FF920F931F938C017A010E94F4
:102F30008917C801B7010E9481171F910F91FF9057
:102F4000EF900895EF92FF920F931F93CF93DF932B
:102F5000EC011A891F3F09F0B6C081E892E060E0F9
:102F600070E00E94B2198A8B81508E3F08F48EC0A7
:102F70001A8B00D000D0ADB7BEB71296DC93CE93BB
:102F8000119785EA94E014969C938E9313970E9470
:102F9000910F0F900F900F900F908A89282F30E09B
:102FA00040E050E060E070E080E090E0E22E01E080
:102FB000313C08F400E011E04C3A08F410E005550B
:102FC0001060E1E05E3C08F4E0E01353F1E01D3CEA
:102FD00008F0F0E0EF2BF1E06C3A08F4F0E0BE2FDF
:102FE000B555E1E0BB3A08F0E0E0FE2BA1E0772325
:102FF00009F4A0E0E1E0882309F4E0E0CE0161E01B
:1030000070ECF72E2B2F3F2F4A2F5E2F0E94A90D19
:10301000CE0165E00E94E4160E947D03282F8A8B72
:103020008F3F89F400D000D0EDB7FEB7D283C183C3
:1030300083E694E0948383830E94910F0F900F9016
:103040000F900F90FFCF00D000D000D0EDB7FEB7AB
:103050003196ADB7BEB71296DC93CE9311978CE440
:1030600094E093838283248315820E94910FEDB7AD
:10307000FEB736960FB6F894FEBF0FBEEDBF81E8DF
:1030800092E060E070E04A890E94B91900D000D057
:1030900000D0EDB7FEB73196ADB7BEB71296DC9350
:1030A000CE93119789E294E0938382838A89848303
:1030B00015820E94910FEDB7FEB736960FB6F894C1
:1030C000FEBF0FBEEDBFDF91CF911F910F91FF901B
:1030D000EF900895DF92EF92FF920F931F93CF939B
:1030E000DF93EC018B01D42E7901188A0E94B40E73
:1030F000CE010E945D0DCE0160E00E94C70BCE01A3
:103100006FE04FE00E94BD0BCE01B8010E94370D69
:10311000CE016D2D0E943A0CCE01B7010E94060D22
:10312000CE0162E070E00E94EB0C8989882371F087
:10313000CE0162E0EE24EA94E0ECFE2E0BEA1DECF8
:103140002BEA30E040E050E00E94A90DDF91CF91E2
:103150001F910F91FF90EF90DF900895CF92DF9233
:10316000EF92FF920F931F93CF93DF93EC01F62E14
:103170006A01E22E82E892E040E051EE60E070E009
:1031800026E00E94461BFA8A8989882319F42EEBCF
:1031900031E002C025EC31E000D000D000D0EDB726
:1031A000FEB73196ADB7BEB71296DC93CE931197AA
:1031B0008EEF94E093838283358324830E94910F62
:1031C0008DB79EB706960FB6F8949EBF0FBE8DBF03
:1031D000CE01B6014E2D98010E946A1881E892E056
:1031E00061E070E00E94B2198C8B81E892E062E0AD
:1031F00070E00E94B2198B8B8C898F3F19F4CE013D
:103200000E947213ADB7BEB718970FB6F894BEBF41
:103210000FBEADBFEDB7FEB731961296DC93CE93DD
:10322000119787EE94E0938382838C89848315823F
:103230008B89868317820E94910F8DB79EB708965F
:103240000FB6F8949EBF0FBE8DBFCE010E94A2178D
:103250008A89282F30E040E050E060E070E080E0B4
:1032600090E0E22E01E0313C08F400E011E04C3A3D
:1032700008F410E005551060E1E05E3C08F4E0E081
:103280001353F1E01D3C08F0F0E0EF2BF1E06C3A55
:1032900008F4F0E0BE2FB555E1E0BB3A08F0E0E0FD
:1032A000FE2BA1E0772309F4A0E0E1E0882309F4F4
:1032B000E0E0CE0161E020ECF22E2B2F3F2F4A2FD1
:1032C0005E2F0E94A90D8989882311F441E101C074
:1032D00042E1CE016FEF0E94F016BE016A5C7F4FA3
:1032E0008C8990E04AE050E00E94B103AC01CE012D
:1032F00067E00E945E17FE01E55BFF4F8081887FDB
:103300008160982F977F90839A899295907F87709C
:10331000892B80838A89C45BDF4F82958F70888375
:10332000CC54D040FE01E35BFF4F8081807F8083DF
:10333000FE01E15BFF4F80818F7080618083DF91B0
:10334000CF911F910F91FF90EF90DF90CF90089554
:103350000F931F938C010E944A0AF801118A1F9152
:103360000F910895F999FECF72BD61BDF89A80B5AD
:103370000895F999FECF1FBA72BD61BD40BD0FB669
:10338000F894FA9AF99A0FBE08950F931F938C013F
:103390000E94D61F685B7B4080409040F8016587A3
:1033A00076878787908B1F910F9108955F926F9218
:1033B0007F928F929F92AF92BF92CF92DF92EF92C5
:1033C000FF920F931F93CF93DF938C010E94D61F20
:1033D0006B017C01F80185849684A784B08881857F
:1033E0009285019729F02FEC37E040E050E004C0CF
:1033F00027EE33E040E050E0D701C6018819990973
:10340000AA09BB0982179307A407B50708F4C0C02F
:10341000F801C586D686E786F08A80E090E0A0ECC9
:10342000BFE780839183A283B38384839583A6833C
:10343000B783808560E00E94F620F801808561E016
:103440000E94B720F80181859285019739F462E1E5
:1034500070E080E090E00E944F2004C080E293E0A2
:103460000E940A20F801808560E00E94B720F801E0
:10347000808561E00E94F620CDEFDFEFCC2E0E9428
:10348000E41F562E21E0A22EB12CAC22BD220E94B8
:10349000E41FD62ED518FAE5FD1518F481E090E06A
:1034A00032C0F80180850E944A218A159B0579F374
:1034B000C7FC0BC0AB2849F0EE0CFF1CFEE1FD156C
:1034C00020F481E090E0E82AF92A9FE1C91621F072
:1034D000EFE3CE1631F402C0370103C04701EE24FA
:1034E000FF242196C035D10549F6672D7727C92DD0
:1034F000D0E0882D860D860F890D90E08E159F05F2
:1035000031F082E090E0F8019487838741C0F801B0
:1035100081859285019779F480E090E00E94A02255
:10352000F8016483758386839783BE0180E090E011
:103530000E94A02225C0B30180E090E00E94A0225A
:103540002DEC3CEC4CEC5DE30E945623F8016483C7
:10355000758386839783C40197FF05C09F7788246E
:103560009924881A990AB401882777FD8095982FA5
:103570000E94A2222DEC3CEC4CEC5DE30E94562311
:10358000F8016083718382839383F8011486138624
:10359000DF91CF911F910F91FF90EF90DF90CF902F
:1035A000BF90AF909F908F907F906F905F900895A5
:1035B0000F931F938C010E94D619F801208131814D
:1035C00042815381B901CA011F910F9108950F9350
:1035D0001F938C010E94D619F80124813581468100
:1035E0005781B901CA011F910F9108950F931F933D
:1035F000CF93DF93EC018A0168875A8749870E943D
:10360000C519012B71F482E090E09A878987CE0179
:103610000E94D6198B859C858130910511F49A877B
:103620008987DF91CF911F910F910895DC015C96FE
:103630008C915C97FD01E80FF11DE35AFF4F20814B
:103640005C968C915C9790E001968F7390705C967D
:103650008C935C975696ED91FC91579720835096EA
:10366000ED91FC9151978081806480835B969C9161
:103670005B975C968C915C97981739F45296ED9114
:10368000FC91539780818F7D80830895DF92EF9224
:10369000FF920F931F93CF93DF93EC017A018B017D
:1036A000D22EE889F98982E08083403081EE580784
:1036B00080E0680780E07807A1F060E079E08DE3C2
:1036C00090E0A80197010E94DC2321503040404047
:1036D0005040569547953795279580E1203038071B
:1036E00098F0E889F989108260E874E88EE190E04A
:1036F000A80197010E94DC232150304040405040F7
:103700005695479537952795EC85FD853083EE8551
:10371000FF852083188EEC89FD89D082EA89FB8998
:10372000808180618083EA89FB89808188608083D1
:10373000EA89FB89808180688083EA89FB898081AE
:103740008F7D8083DF91CF911F910F91FF90EF903C
:10375000DF900895FC01218D828D30E0205C3F4F89
:10376000281B31092F733070C9010895FC01918D18
:10377000828D981719F42FEF3FEF06C0828DE80F66
:10378000F11D858D282F30E0C9010895DC0159967F
:103790009C9159975A968C915A97981719F42FEF34
:1037A0003FEF10C05A968C915A97FD01E80FF11D1A
:1037B000958D5A968C915A978F5F8F735A968C93EA
:1037C000292F30E0C9010895CF93DF93EC01888D54
:1037D000882361F419C08C9185FF0AC0E889F989B2
:1037E000808185FF05C0CE010E94161BAA89BB8976
:1037F0008C9185FD05C0E889F989808186FD04C02A
:103800000FB607FEE8CFF4CFDF91CF9108950F9365
:103810001F93CF93DF93EC01062F9B8D8C8D981710
:1038200091F5E889F989808185FF2DC0EE89FF89AE
:103830006083E889F9898081806480831DC00FB628
:1038400007FC08C0E889F989808185FF03C0CE01A3
:103850000E94161B8C8D181791F38B8DFE01E80FBB
:10386000F11DE35AFF4F00831B8FEA89FB8980819A
:103870008062808381E0888F81E090E0DF91CF914A
:103880001F910F9108951B8D1F5F1F73E3CF8FEC66
:103890009CE1892B51F080E090E0892B31F00E946F
:1038A000CF1C882311F00E94000008951F920F92F0
:1038B0000FB60F9211242F938F939F93EF93FF9343
:1038C000E0919202F0919302808182FD16C0E09116
:1038D0009802F0919902208190919B029F5F9F73C3
:1038E00080919C02981771F0E0919B02F0E0EE57F6
:1038F000FD4F258F90939B0205C0E0919802F091B7
:103900009902E081FF91EF919F918F912F910F90FC
:103910000FBE0F901F90189510928502109284028E
:1039200088EE93E0A0E0B0E0809386029093870257
:10393000A0938802B09389028FED91E09093830267
:103940008093820285EC90E090938F0280938E02A8
:1039500084EC90E0909391028093900280EC90E050
:10396000909393028093920281EC90E09093950261
:103970008093940282EC90E0909397028093960259
:1039800086EC90E0909399028093980210929B02AB
:1039900010929C0210929D0210929E02089582E85D
:1039A00092E00E94AA1B20E0892B09F021E0822FDF
:1039B00008951F920F920FB60F9211242F933F93E9
:1039C0004F935F936F937F938F939F93AF93BF9327
:1039D000EF93FF9382E892E00E94161BFF91EF9114
:1039E000BF91AF919F918F917F916F915F914F9117
:1039F0003F912F910F900FBE0F901F901895CF926F
:103A0000DF92EF92FF920F931F93CF93DF937C018E
:103A10006B018A01C0E0D0E00FC0D6016D916D014D
:103A2000D701ED91FC910190F081E02DC70109953E
:103A3000C80FD91F015010400115110571F7CE01B3
:103A4000DF91CF911F910F91FF90EF90DF90CF907A
:103A50000895EF92FF920F931F938C01DC01ED917B
:103A6000FC910190F081E02D6DE009957C01D80179
:103A7000ED91FC910190F081E02DC8016AE009957B
:103A80009C012E0D3F1DC9011F910F91FF90EF90DA
:103A90000895CF93DF93EC016115710519F420E0CF
:103AA00030E00FC0DB010D900020E9F71197A61B55
:103AB000B70BE881F9810280F381E02DAD01099512
:103AC0009C01C901DF91CF9108954F925F927F923F
:103AD0008F929F92AF92BF92CF92DF92EF92FF921E
:103AE0000F931F93DF93CF93CDB7DEB7A1970FB698
:103AF000F894DEBF0FBECDBF2C01742ECB01223057
:103B000008F42AE019A231E2C32ED12CCC0EDD1E1E
:103B1000822E9924AA24BB24672D752FA501940118
:103B20000E94DC2379018A01C801B701A501940133
:103B30000E94BD23472D461B0894C108D1084A3076
:103B400014F4405D01C0495CF6014083E114F104C6
:103B50000105110521F07E2C5F2DC801DDCFC201CA
:103B6000B6010E94491DA1960FB6F894DEBF0FBEA4
:103B7000CDBFCF91DF911F910F91FF90EF90DF901C
:103B8000CF90BF90AF909F908F907F905F904F901D
:103B90000895DC012115310541F4ED91FC9101906E
:103BA000F081E02D642F099508950E94651D089508
:103BB000CF92DF92EF92FF920F931F93CF93DF93F9
:103BC000EC016A017B012115310541F4E881F9819D
:103BD0000190F081E02D642F09951FC02A30310536
:103BE000D1F477FF17C0E881F9810190F081E02DD1
:103BF0006DE209958C0144275527BA014C195D09DE
:103C00006E097F09CE012AE00E94651D9801280FE8
:103C1000391F04C02AE00E94651D9C01C901DF9183
:103C2000CF911F910F91FF90EF90DF90CF9008956B
:103C30000E94491D08957F928F929F92AF92BF92EA
:103C4000CF92DF92EF92FF920F931F93CF93DF9368
:103C50004C017A018B01722ECB01BA01A8019701A8
:103C60000E94B923882321F0C4016BEC71E021C0CC
:103C7000C0E0D0E057016801E894D7F8C601B5016B
:103C80002FEF3FEF4FE75FE70E94B923882351F4FE
:103C9000C601B5012FEF3FEF4FE75FE70E94032218
:103CA000181614F0C1E0D0E0219739F0C4016FEC90
:103CB00071E00E94491DEC0193C0C801B7012FEFCC
:103CC0003FEF4FE75FE40E945223181654F0C801FB
:103CD000B7012FEF3FEF4FE75FEC0E9403228823ED
:103CE00024F4C40163ED71E0E4CFC801B70120E022
:103CF00030E040E050E00E94032287FD03C0C0E0B6
:103D0000D0E00EC0D401ED91FC910190F081E02D46
:103D1000C4016DE20995EC0117FB109517F9109598
:103D200020E030E040E05FE3DD240BC0CA01B901D0
:103D300020E030E040E251E40E9407229B01AC0108
:103D4000D394D71498F3C801B7010E949F215B0157
:103D50006C010E9474227B018C01C401B801A7018F
:103D60002AE030E00E94C91DC80FD91F772039F022
:103D7000C40167ED71E00E94491DC80FD91FC80139
:103D8000B7010E94A0229B01AC01C601B5010E94AF
:103D90009E2124C020E030E040E251E40E945623FE
:103DA0007B018C010E946F225B016C01CC24B7FC6B
:103DB000C094DC2CC401B601A5012AE030E00E94C9
:103DC000D81DC80FD91FC601B5010E94A2229B01B0
:103DD000AC01C801B7010E949E217A947720D1F6E8
:103DE000CE01DF91CF911F910F91FF90EF90DF9067
:103DF000CF90BF90AF909F908F907F900895EF925B
:103E0000FF920F931F937C010E941B1E8C01C70120
:103E10000E94291D080F191FC8011F910F91FF90C3
:103E2000EF900895EF92FF920F931F937C010E94F1
:103E3000491D8C01C7010E94291D080F191FC801C7
:103E40001F910F91FF90EF9008951F920F920FB660
:103E50000F9211242F933F934F935F936F937F9310
:103E60008F939F93AF93BF93EF93FF9380911F0323
:103E700090912003892B29F0E0911F03F0912003FA
:103E80000995FF91EF91BF91AF919F918F917F9194
:103E90006F915F914F913F912F910F900FBE0F90B7
:103EA0001F9018951F920F920FB60F9211242F9307
:103EB0003F934F935F936F937F938F939F93AF93B2
:103EC000BF93EF93FF938091210390912203892B5D
:103ED00029F0E0912103F09122030995FF91EF91E0
:103EE000BF91AF919F918F917F916F915F914F9112
:103EF0003F912F910F900FBE0F901F901895CF9369
:103F0000DF930E9414200E94A509C7E4DCE10E940F
:103F100088092097E1F30E94471CF9CF1F920F9266
:103F20000FB60F9211242F933F938F939F93AF93CC
:103F3000BF938091270390912803A0912903B0910A
:103F40002A0330912B030196A11DB11D232F2D5F54
:103F50002D3720F02D570196A11DB11D20932B0365
:103F60008093270390932803A0932903B0932A03F7
:103F70008091230390912403A0912503B0912603FF
:103F80000196A11DB11D8093230390932403A09358
:103F90002503B0932603BF91AF919F918F913F91DD
:103FA0002F910F900FBE0F901F9018958FB7F89418
:103FB00020912703309128034091290350912A032F
:103FC0008FBFB901CA0108959FB7F89420912303C8
:103FD00030912403409125035091260386B5A89B78
:103FE00006C08F3F21F02F5F3F4F4F4F5F4F9FBF66
:103FF000542F432F322F2227280F311D411D511DD1
:1040000082E0220F331F441F551F8A95D1F7B90153
:10401000CA010895019739F0880F991F880F991FD9
:1040200002970197F1F70895789484B5826084BD72
:1040300084B5816084BD85B5826085BD85B58160AC
:1040400085BDEEE6F0E0808181608083E1E8F0E00C
:104050001082808182608083808181608083E0E83B
:10406000F0E0808181608083E1EBF0E0808184601A
:104070008083E0EBF0E0808181608083EAE7F0E01C
:104080008081846080838081826080838081816080
:1040900080838081806880831092C1000895EF92B0
:1040A000FF920F931F93CF93DF937B018C013FB758
:1040B000F8948091230390912403A0912503B0915B
:1040C000260326B5A89B05C02F3F19F00196A11D18
:1040D000B11D3FBFBA2FA92F982F8827820F911D9E
:1040E000A11DB11D52E0880F991FAA1FBB1F5A9531
:1040F000D1F7EC0130C00E949D213FB7F894809128
:10410000230390912403A0912503B091260326B5A3
:10411000A89B05C02F3F19F00196A11DB11D3FBFFF
:10412000BA2FA92F982F8827820F911DA11DB11D8D
:1041300032E0880F991FAA1FBB1F3A95D1F78C1B3D
:104140009D0B885E9340B8F20894E108F1080109DC
:104150001109C851DC4FE114F1040105110559F6AC
:10416000DF91CF911F910F91FF90EF900895CF9322
:10417000DF93482F50E0CA01835C9A4FFC013491D1
:10418000475D5A4FFA018491882369F190E0880FC6
:10419000991FFC01E55FFA4FA591B491FC01EB5E1C
:1041A000FA4FC591D491662351F42FB7F8948C91AE
:1041B000932F909589238C93888189230BC062303B
:1041C00061F42FB7F8948C91932F909589238C9359
:1041D0008881832B88832FBF06C09FB7F8948C916A
:1041E000832B8C939FBFDF91CF910895482F50E090
:1041F000CA018F5A9A4FFC012491CA01835C9A4FDD
:10420000FC019491475D5A4FFA013491332309F42C
:1042100040C0222351F1233071F0243028F42130A2
:10422000A1F0223011F514C02630B1F02730C1F0D2
:104230002430D9F404C0809180008F7703C080912E
:1042400080008F7D8093800010C084B58F7702C07E
:1042500084B58F7D84BD09C08091B0008F7703C085
:104260008091B0008F7D8093B000E32FF0E0EE0FDF
:10427000FF1FEB5EFA4FA591B4912FB7F894662318
:1042800021F48C919095892302C08C91892B8C9379
:104290002FBF0895682F70E0CB018F5A9A4FFC0111
:1042A0002491CB01835C9A4FFC014491675D7A4F66
:1042B000FB019491992319F420E030E03CC02223C3
:1042C00051F1233071F0243028F42130A1F0223054
:1042D00011F514C02630B1F02730C1F02430D9F4E4
:1042E00004C0809180008F7703C0809180008F7D13
:1042F0008093800010C084B58F7702C084B58F7D15
:1043000084BD09C08091B0008F7703C08091B00058
:104310008F7D8093B000892F90E0880F991F815E78
:104320009A4FFC01A591B4918C9120E030E0842358
:1043300011F021E030E0C901089508955058BB27DD
:10434000AA270ED075C166D130F06BD120F031F4C0
:104350009F3F11F41EF45BC10EF4E095E7FB51C1E1
:10436000E92F77D180F3BA1762077307840795079F
:1043700018F071F49EF58FC10EF4E0950B2EBA2F54
:10438000A02D0B01B90190010C01CA01A00111245B
:10439000FF27591B99F0593F50F4503E68F11A1607
:1043A000F040A22F232F342F4427585FF3CF469598
:1043B00037952795A795F0405395C9F77EF41F16BA
:1043C000BA0B620B730B840BBAF09150A1F0FF0F84
:1043D000BB1F661F771F881FC2F70EC0BA0F621F70
:1043E000731F841F48F4879577956795B795F79560
:1043F0009E3F08F0B3CF9395880F08F09927EE0FF2
:10440000979587950895D9D008F481E008950CD048
:104410000FC107D140F0FED030F021F45F3F19F01A
:10442000F0C0511139C1F3C014D198F39923C9F3E5
:104430005523B1F3951B550BBB27AA2762177307AA
:10444000840738F09F5F5F4F220F331F441FAA1F5E
:10445000A9F333D00E2E3AF0E0E830D0915050401E
:10446000E695001CCAF729D0FE2F27D0660F771FCC
:10447000881FBB1F261737074807AB07B0E809F0AE
:10448000BB0B802DBF01FF2793585F4F2AF09E3F43
:10449000510568F0B6C000C15F3FECF3983EDCF315
:1044A000869577956795B795F7959F5FC9F7880FBC
:1044B000911D9695879597F90895E1E0660F771F0E
:1044C000881FBB1F621773078407BA0720F0621B9F
:1044D000730B840BBA0BEE1F88F7E095089504D098
:1044E0006894B111D9C00895BCD088F09F5790F05E
:1044F000B92F9927B751A0F0D1F0660F771F881F09
:10450000991F1AF0BA95C9F712C0B13081F0C3D023
:10451000B1E00895C0C0672F782F8827B85F39F0C1
:10452000B93FCCF3869577956795B395D9F73EF467
:1045300090958095709561957F4F8F4F9F4F08950F
:10454000E89409C097FB3EF490958095709561952D
:104550007F4F8F4F9F4F9923A9F0F92F96E9BB27E3
:104560009395F695879577956795B795F111F8CF5F
:10457000FAF4BB0F11F460FF1BC06F5F7F4F8F4FCA
:104580009F4F16C0882311F096E911C0772321F0C0
:104590009EE8872F762F05C0662371F096E8862F58
:1045A00070E060E02AF09A95660F771F881FDAF7AF
:1045B000880F9695879597F90895990F0008550FDC
:1045C000AA0BE0E8FEEF16161706E807F907C0F099
:1045D00012161306E407F50798F0621B730B840BA1
:1045E000950B39F40A2661F0232B242B252B21F47B
:1045F00008950A2609F4A140A6958FEF811D811D1B
:10460000089597F99F6780E870E060E008959FEF54
:1046100080EC089500240A94161617061806090659
:10462000089500240A941216130614060506089528
:10463000092E0394000C11F4882352F0BB0F40F4B0
:10464000BF2B11F460FF04C06F5F7F4F8F4F9F4FF0
:10465000089557FD9058440F551F59F05F3F71F072
:104660004795880F97FB991F61F09F3F79F08795D9
:104670000895121613061406551FF2CF4695F1DF62
:1046800008C0161617061806991FF1CF86957105F2
:10469000610508940895E894BB2766277727CB0126
:1046A00097F908958ADF08F48FEF08950BD0C0CFF3
:1046B000B1DF28F0B6DF18F0952309F0A2CFA7CF1D
:1046C0001124EACFC6DFA0F3959FD1F3950F50E0F8
:1046D000551F629FF001729FBB27F00DB11D639FB4
:1046E000AA27F00DB11DAA1F649F6627B00DA11D5A
:1046F000661F829F2227B00DA11D621F739FB00D00
:10470000A11D621F839FA00D611D221F749F33276F
:10471000A00D611D231F849F600D211D822F762F08
:104720006A2F11249F5750408AF0E1F088234AF005
:10473000EE0FFF1FBB1F661F771F881F9150504051
:10474000A9F79E3F510570F05CCFA6CF5F3FECF319
:10475000983EDCF3869577956795B795F795E7953D
:104760009F5FC1F7FE2B880F911D9695879597F94E
:10477000089523DF880B990B0895629FD001739FE2
:10478000F001829FE00DF11D649FE00DF11D929FED
:10479000F00D839FF00D749FF00D659FF00D99272C
:1047A000729FB00DE11DF91F639FB00DE11DF91F50
:1047B000BD01CF0111240895A1E21A2EAA1BBB1B33
:1047C000FD010DC0AA1FBB1FEE1FFF1FA217B307DD
:1047D000E407F50720F0A21BB30BE40BF50B661FF3
:1047E000771F881F991F1A9469F7609570958095B7
:1047F00090959B01AC01BD01CF010895AA1BBB1B85
:1048000051E107C0AA1FBB1FA617B70710F0A61BD0
:10481000B70B881F991F5A95A9F780959095BC01F1
:10482000CD010895EE0FFF1F0590F491E02D09943E
:104830002F923F924F925F926F927F928F929F92B0
:10484000AF92BF92CF92DF92EF92FF920F931F939E
:10485000CF93DF93CDB7DEB7CA1BDB0B0FB6F8944F
:10486000DEBF0FBECDBF09942A88398848885F848F
:104870006E847D848C849B84AA84B984C884DF8000
:10488000EE80FD800C811B81AA81B981CE0FD11DE4
:104890000FB6F894DEBF0FBECDBFED010895F894BA
:0248A000FFCF48
:1048A20044485420506F776572696E6720646F7751
:1048B2006E2E00444854206973206261636B2100AC
:1048C2004661696C65642072656164696E6720681F
:1048D200756D69646974792066726F6D20444854FD
:1048E20000483A20004661696C6564207265616423
:1048F200696E672074656D7065726174757265208A
:1049020066726F6D2044485400543A20007265610B
:1049120064696E67004448542D31312073656E73AB
:104922006F72207374617274696E672075700044CF
:1049320048542D313100312E3000303B303B343B76
:1049420031313B006F6B0065760065630000312EEC
:10495200336233202835343163643433290073657C
:104962006E736F720072656C6179006E616E0069C0
:104972006E66006F7666002E00170A0000000007C0
:0C4982001CFF1CAA1BC61BB61BE41B007C
:00000001FF
